:10000000007C00202D3700005937000059370000D0
:1000100059370000593700005937000059370000A0
:100020005937000059370000593700005937000090
:100030005937000059370000593700005937000080
:10004000A91000003D81000059370000E57C000048
:10005000A981000049810000618100004181000008
:10006000590C00002D0D0000311D00009D330000D3
:100070005937000059370000593700005937000040
:1000800059370000510D0000593700005937000062
:100090005937000059370000593700005937000020
:1000A000593700005937000059370000AD81000072
:1000B00045810000BD0E0000ED81000059370000B1
:1000C000256D00005937000010B5054C237833B971
:1000D000044B13B10448AFF300800123237010BD1B
:1000E000980700200000000018BD000008B5034B71
:1000F0001BB103490348AFF3008008BD00000000B6
:100100009C07002018BD0000154B002B08BF134BA7
:100110009D46A3F5803A00218B460F461348144AAA
:10012000121A08F080FA0F4B002B00D098470E4BA4
:10013000002B00D098470020002104000D000D483E
:10014000002802D00C48AFF3008008F00DFA200020
:10015000290000F06DF808F0E1F900BF0000080088
:10016000007C002000000000000000009807002034
:10017000982A0020000000000000000008B503F0ED
:1001800003F802F097FF01210248BDE8084001F0A2
:1001900063BE00BF00250A0002F0DEBF08B503F011
:1001A000DDFC03F0FBFC002002F0BEFF012002F0AA
:1001B000BBFF044B044880221A60BDE8084008F0E9
:1001C00031BE00BFFCA00046609D000073B508F082
:1001D000B9F9134C134D144E8DF807009DF8070024
:1001E000431EDBB2FD2B01D902B070BD0A2801D03D
:1001F00008F0A8FD01220DF10701204600F02CFABD
:10020000002808DD284608F085FD33781BB9074B28
:10021000186804F045FB08F095F98DF80700DDE754
:10022000B4080020049E00006E240020CC080020AA
:1002300007B53D4BDC6C01A8240E02F007FD8E2CA7
:100240001CD83A49D1F8B00040F00403C1F8B030EE
:10025000374B4FF050121A601A631A66C3F8902099
:10026000C3F8C020C3F8F020C1F8B0002F4AD36A09
:1002700023F07F0343F02003D36201E08F2CF5D9F4
:100280009DF805302B4C012B01BF2B4A136843F01E
:1002900004031360294B00251D60FFF76FFF042046
:1002A00002F006FF284602F027FF012002F024FF9B
:1002B00003F042FB04F01CFA04F060FA04F048F882
:1002C0001F4808F0AFFD1F4808F0ACFD1E4B1F484B
:1002D0001D7008F0A7FD1E481E4B1F490068012233
:1002E00004F0D0FA1D4808F015FD1D4B1D491E48AD
:1002F0004FF4807200F0A4F942F20F762560236873
:10030000B34203DD0220FFF747FF25602368013376
:100310002360FFF75BFF03F07DFC04F019F904F0A4
:10032000A1F904F02FF8EAE7B081E00F00400E4099
:1003300000A00040C808002064310E40B40AC64343
:10034000759D00009B9D00006E240020BF9D000055
:10035000CC0800209D01000040420F00019E0000DB
:1003600000000020B4070020B408002000207047DF
:1003700070470000B0F5007F38B517D802F080F85C
:100380000C4A00234FF4017404FB03F18D188958C3
:1003900031B901222A601C4602F076F8204638BDA9
:1003A00001330A2BF0D14FF0FF34F5E74FF0FF3463
:1003B000F4E700BFD4080020431C10B504460FD05A
:1003C00009280DD802F05CF84FF40173054A634325
:1003D000D4580CB104339C1802F056F8204610BDD6
:1003E0000024FBE7D408002038B5044602F048F8A2
:1003F00005462046FFF7E0FF30B14FF40170054A93
:1004000060431358013B13502846BDE8384002F0C2
:100410003BB800BFD408002038B5044602F030F8DD
:1004200005462046FFF7C8FF30B14FF40170054A7A
:1004300060431358013313502846BDE8384002F09A
:1004400023B800BFD40800200A2938B504460D4659
:1004500009D838B102F014F80023A580236002F017
:1004600013F8012038BD0020FCE7F8B50F4604461C
:10047000A0B102F005F86688A5882388AE420ED2A6
:10048000334493FBF5F205FB12339BB20233013682
:1004900044F82370668001F0F7FF0120F8BD9A1C34
:1004A000013344F8227093FBF5F205FB12332380ED
:1004B000F1E770B50446B0B101F0E2FF638883B1A3
:1004C0002288A688911C013254F8215092FBF6F143
:1004D000013B06FB11222280638001F0D5FF2846F4
:1004E00070BD1D46F9E70546F9E710B5044648B169
:1004F00001F0C6FF6488B4FA84F4640901F0C4FF13
:10050000204610BD0124FBE773B504460D46164690
:10051000A2B107F0FDFF0022026001A9204608F009
:100520002DFE07F0F5FF0368BBB9204608F075FD06
:10053000019B1B1B1B1A584258410FE007F0E8FFB4
:1005400001A906603246204608F0A8FEED00012110
:10055000A940013930EA0103E3D0002002B070BDA8
:1005600019B90146064808F0D5BB012902D114216A
:100570000448F8E7022902D1034808F053BC704749
:1005800038A3000055A3000083A300002DE9F84321
:10059000002604460546374685B92248224DDFF835
:1005A0009880DFF8989008F03DFC204808F03AFC6D
:1005B0000CB12268A2B90120BDE8F88328680028A0
:1005C000EBD008F02AFD8046686808B108F025FDE8
:1005D0004745B8BF47468642B8BF06461035DBE7F9
:1005E000A368E3B17942404608F094FB6268A2B187
:1005F00011780F4B002908BF1A467142484608F08F
:1006000089FBE16821B10B7813B10A4808F082FB3D
:100610000A2008F097FB1034CAE7054AEDE71146B7
:100620002846F3E7BBA3000037A40000D8A30000CE
:10063000E2A5000033A400002FA400002EA40000B7
:1006400040B139B101600021C0E9021203610171BA
:1006500008467047012070472DE9F04F16469FB0BD
:100660000446002800F01381002900F010818568FD
:10067000E368A818984280F00E812068284407F0AB
:10068000AEFFA26800233244A26002930093A268E6
:10069000AA420BD8009B2BB12068D21AA260C118C5
:1006A00007F0A8FF02981FB0BDE8F08F23685A1921
:1006B0005B5D04930A2B01D00D2B2AD1002313700C
:1006C000009B9D4213D0236905932668009B1E441E
:1006D000711E334611F8012FEAB91A70784909AA38
:1006E000304608F0CCFC8146002840F0CE80049BC8
:1006F0000A2B05D123790D2B02D1009B9D4203D0FB
:10070000029B01335BB202936B1C00939DF8103087
:1007100023710135BBE7082A03D19E42DAD2013B9F
:10072000D8E71A700133D5E74BF82A900AF1010A8D
:10073000BAF1140F04D101213046FFF711FFD6E7BB
:1007400009AA5F49002008F09AFC81467BE0039BE0
:10075000012B00F09880023B0693039A019B1344FF
:100760004FF001084FF02E0B0793C24518D1069B9E
:100770009A4540F38880BB680AA9504698474FF0D5
:1007800001083B681BB9059B002B40F08C80B8F139
:10079000000FACD1B9F1000FA9D000214846CCE739
:1007A000039B08F1FF329A4210DB079B13F8012CE0
:1007B0002A2A68D1BBF1750F26D010D8BBF1620F81
:1007C0001FD0BBF1730F5ED101220FE0019B03EB41
:1007D000080212F8012C2A2A18BF9346EAE7BBF157
:1007E000760F05D0BBF1770F4DD10022042101E037
:1007F000002202210AAB53F82800FFF785FE0028EB
:1008000041D008F10108B0E700220121F2E71037DA
:10081000002F43D0D7F80080B8F1000FB1D0BB68EB
:10082000002BF4D04146484608F0C2FB0028EED128
:100830000DF1780B09AA22494BF8508D08F01FFCE6
:100840004FF0010A8146B9F1000F7FF46DAF7B686C
:100850000193002B8FD01B49184608F0D4FB0028C9
:1008600089D0019808F0D9FB2A210390019808F05B
:10087000BDFB039B00283FF46FAF019A013B13447B
:1008800098423FF464AF022156E7059FC0E74FF05E
:10089000FF33029306E76FF00103FAE7059B002B95
:1008A0003FF47BAFB8460849304608F081FB00288A
:1008B0007FF46DAF0598FFF769FE804667E700BFDC
:1008C00043A4000047A4000049A4000000221146F0
:1008D00008F0E4BC0022114608F050BC2DE9F04FAE
:1008E0009B46584B85B01B78109F9DF844A0DDF8BF
:1008F0005080064689461546002B00F09280072A54
:1009000000F291800E9B002B00F08D800F9B002B3E
:1009100000F08980129BB3F5006F00F384800128FA
:1009200001D1002F7FD0484B03EB05131B7B002B1D
:100930007BD0464C10220021684607F074FE04EB81
:1009400045141022B9F1000F5CD14946204607F04A
:100950006AFEA37843F01003A370E37843F03003FA
:10096000E370BAF1000F03D1DBB243F00303E3708D
:100970003649129BCDF800B06A01013B885A01EB61
:10098000020C63F30E1088520E9BCCF808300F9BBC
:10099000CCF804309DF84C109CF80330012E61F324
:1009A00083038CF8033042D11323CCF80C309CE83D
:1009B0000F000CF1100E8EE80F00DCF81C20CCF8B4
:1009C00014706FF0030161F39F02B9F1010FCCF8CD
:1009D0001C2004D10F9BCCF81830CCF804701A49B5
:1009E0002A018B1841F802800027159A5A60284680
:1009F0009F605E732246694602F0ACF8384605B047
:100A0000BDE8F08F0021204607F00DFE1023A370F3
:100A10000323E370BAF1000FAAD1DBB243F0300335
:100A2000A5E70B48EBE70B48E9E70B48E7E7B8F128
:100A3000000FD4D19CF8023068F304138CF8023014
:100A4000CDE700BF7C1E0020FC1C00207C1D002088
:100A5000028000F0018000F0078000F038B5104BF4
:100A60001B780546BBB1C0B101F011FD0D49002353
:100A700001EB0312147B3CB92B6001231373146048
:100A800001F009FD204638BD0133082BF0D101F0FB
:100A900002FD0548F7E70548F5E70548F3E700BF1D
:100AA0007C1E0020FC1C0020048000F0028000F06E
:100AB000018000F013B5164B1868019000238DF8E3
:100AC000043001F0E4FC134B1C7824B101F0E3FC8A
:100AD000114802B010BD01221A7001F0DCFC0F4B6E
:100AE0001C731C7783F82C4083F83C4083F84C40FF
:100AF00083F85C4083F86C4083F87C4004230DEB62
:100B000003008DF8073001F0F9FF2046E1E700BF50
:100B10004EA400007C1E0020038000F0FC1C00207E
:100B200010B588B00E9C07940D9C06949DF830403B
:100B300005940B9C04949DF8284003940024CDE96F
:100B4000013400920B46024621462046FFF7C6FEBE
:100B500008B010BD10B588B00E9C07940D9C06948B
:100B60009DF8304005940B9C04949DF82840039414
:100B70000024CDE9013400920B46024601212046B3
:100B8000FFF7ACFE08B010BD08B50A4B1B785BB18F
:100B900007280BD8084B03EB00131B7B43B1002144
:100BA00001F0A2FF002008BD0448FCE70448FAE772
:100BB0000448F8E77C1E0020FC1C0020028000F0A6
:100BC000018000F0078000F008B50A4B1B785BB18C
:100BD00007280BD8084B03EB00131B7B43B1012103
:100BE00001F082FF002008BD0448FCE70448FAE752
:100BF0000448F8E77C1E0020FC1C0020028000F066
:100C0000018000F0078000F00D4B1B7893B107289E
:100C100012D889B10B4B03EB00131B7B73B10A4B4A
:100C20001A6A012303FA00F010401ABF00200B706B
:100C30000870704705487047054870470548704779
:100C40007C1E0020FC1C002000200E40028000F0D2
:100C5000018000F0078000F02DE9F843174E326E56
:100C6000F36E12EA030800D5FEE7154CDFF8549046
:100C70000127002518EA070F16D02368B7669BB135
:100C8000A16862680131A16028469847637B012B07
:100C90000AD148B909EB4513197B1A7F60F341016A
:100CA00060F3410219731A770135082D4FEA47079F
:100CB00004F11004DED1BDE8F88300BF00200E402F
:100CC000FC1C00207C1D002070B5094E0446012547
:100CD00004B970BD94FAA4F0B0FA80F005FA00F3FC
:100CE00024EA030456F82030002BF1D09847EFE7B0
:100CF000801E0020054B4FF40032C3F880211A609B
:100D00004FF40072C3F880211A60704700E100E0E0
:100D100038B504460D4601F0BAFB034B43F82450A6
:100D2000BDE8384001F0B7BB801E0020074BD3F868
:100D30002804D3F81C24104020F42A5020F02A0064
:100D40004004400CC3F82404FFF7BEBF00A00040DD
:100D5000074BD3F82804D3F81C24104020F4AA40F1
:100D600020F055000004000CC3F82404FFF7ACBFCA
:100D700000A000402DE9F84F284C4FF0000A04F184
:100D8000A00580464FF000094FF0010B237F84F847
:100D90001DA06BB1D4E90023994508BF90451046CA
:100DA00019460AD2B2EB080063EB0901C4E900015D
:100DB0002834AC42EAD1BDE8F88FE37F33B923771A
:100DC000A369002BF4D084F81DB0F1E7D4E90267E1
:100DD000B8EB000069EB010132463B4607F018FA18
:100DE000B01A67EB030123696269002BC4E90001B3
:100DF0000BDD1344F32B6361E2D9461C41F100077C
:100E0000F43BC4E900676361DAE7D31AF32B63614B
:100E1000D6D910F1FF3641F1FF37F1E7D01E00209F
:100E200038B5074C0025637F1BB1A369216A2846AA
:100E300098470135042D04F12804F4D138BD00BFD2
:100E4000D01E0020F0B5194E00214FF0FF324FF0B8
:100E5000FF337418257F3DB1D4E900459D4208BF9A
:100E600094423CBF22462B462831A029F1D110499B
:100E700000240C705C1C08BFB2F1FF3F0C4614D07C
:100E800000279F420B496FF0640608BF9642086036
:100E900038BF32460849042502440D6201234A65E1
:100EA00023704B6A43F004034B62F0BDD01E002058
:100EB000C81E0020C41E0020002004402DE9F04779
:100EC0001E4C01F0E4FA656AA269154025F005029E
:100ED00022626A07804622D5194EA768DFF868901B
:100EE000DFF868A001223270636A23F004036362B2
:100EF000D9F80000381AFFF73DFFFFF791FF384699
:100F0000FFF7A0FFD9F80020A768636DB91A9B1AF4
:100F10009AF800200AB19942E6D800233370EB0713
:100F200006D5064B01221A62064A13680133136084
:100F30004046BDE8F04701F0AEBA00BF00200440D3
:100F4000C01E0020701F0020C41E0020C81E0020EC
:100F50002E49F0B500220B682D4D104654592CB186
:100F60001E68AC18002E3AD1234601200832302AE0
:100F7000F4D100B10B600968264B0A68002A35D00D
:100F8000DA6922F0FF02DA61D8690A790243DA618C
:100F90001A6B42F0804220491A63204D0B680022F0
:100FA0001046545924B11E68AC181EBB23460120BC
:100FB0000832302AF5D100B10B600968154B0A6878
:100FC000FAB1DA6922F47F42DA61DA69097942EA30
:100FD0000122DA611A6B42F000421A63F0BD1E79F9
:100FE0002779B74284BF23460120BFE71A6B22F05E
:100FF0008042D0E71E792779B7423CBF23460120C3
:10100000D6E71A6B22F00042E7E700BF781F002006
:10101000801F002000300E407C1F0020B01F0020E9
:10102000074B186AC0B26FF00403C00090FBF3F0E6
:10103000044B1B68184400F3070040B2704700BF20
:1010400000300E40741F002010B5144C226B616AF2
:101050000A4010D5124B1B681A682AB1002119608A
:101060005960FFF7DDFF90474FF00043E362BDE8B2
:101070001040FFF76DBF5300F9D50A4B1B681A6883
:1010800032B1002119605960FFF7CAFF0121904772
:10109000024B4FF08042DA62E9E700BF00300E40B9
:1010A0007C1F0020781F0020FFF7CEBF38B141B170
:1010B000013AB2F5006F044838BF0020704703487A
:1010C00070470148704700BF037000F0027000F0E5
:1010D0000D490E4A0B7810B54BB9C2E90033C2E98D
:1010E000023301240C7042F82300002010BD0023BD
:1010F00052F823100029F6D08142F4D00133042B9A
:10110000F6D10348F2E700BFF01F0020E01F0020E7
:10111000027000F038B504460D4601F0B8F9A28817
:1011200092B222B92A6001F0B6F9064838BD638848
:10113000142202FB034308332B6001F0ACF90020BA
:10114000F4E700BF0B7000F038B504460D4601F01F
:101150009EF9A3889BB223B92B6001F09CF90C483F
:1011600038BD6388E188142202FB034308332B60F7
:1011700063885A1C92FBF1F301FB13239BB263803B
:10118000A388013B9BB2A38001F085F90020E7E72B
:101190000B7000F07FB5012380F82C3090F83230CE
:1011A00093B90C4A036803920022049002924A68A1
:1011B0000192012200920A68016980681C33FFF7DE
:1011C000C9FC07B05DF804FB012BEAD0002380F8CE
:1011D0002C30F6E7491700007FB5012380F82D3049
:1011E00090F8323083B9026834320D4B03930023F8
:1011F000049002934B680193012300930B68C1682C
:101200004068FFF78DFC07E0012B02D1026828320D
:10121000EBE7002380F82D3007B05DF804FB00BF3A
:1012200025120000F7B5906A01A91446FFF772FF76
:10123000144B984220D0019B00251D619D6001F058
:1012400026F9019AD668074626B1D2E90023294635
:101250002046B04701A9A06AFFF776FFA06A8388FD
:101260009BB263B101A9FFF755FF01992046FFF733
:10127000B3FF384601F00FF9012003B0F0BD84F848
:101280002D30F6E70B7000F0427E30235343044AC2
:101290001A44437F03EBC2039B001868C0B2704737
:1012A0001CA0104213B51D4A002352F82340617F51
:1012B00081420ED00133042BF7D102B010BD0028BB
:1012C000FBD19DF80730002BF7D06068FFF75CFC7E
:1012D000F3E794F83130022BEFD12046FFF7D4FF2B
:1012E000637D2075022BE8D194F82E3003F0FF02C5
:1012F000002BE2D102A9606801F8012DFFF784FC00
:10130000237D1BB194F82F30002BD8D0002384F814
:101310002F306068FFF758FCCFE700BFE01F0020C8
:1013200090F8323053B903680122DA601A69D007A5
:10133000FCD55A6F42F001025A677047012B0CD15D
:1013400003685A6C9107FCD401225A609A68D2074C
:10135000FCD55A6D42F001025A65704790F8323060
:101360003BB903685A6F22F001025A670222DA6021
:101370007047012B09D103685A6C9207FCD45A6D4F
:1013800022F001025A6502225A60704710B50446E5
:10139000FFF790FB0021201DFFF760FB014608B11D
:1013A000044810BD04F10800FFF758FB0028F8D0EE
:1013B000F6E700BF0E7000F0F8B5044617460D467C
:1013C00001F065F8A388E2889A42064605D8002312
:1013D0003B6001F060F81648F8BD2388142202FB38
:1013E0000343083305F1100C2A4603CA624518600E
:1013F0005960154603F10803F6D110681860238878
:10140000E188142202FB034308333B6023885A1C03
:1014100092FBF1F301FB13239BB22380A3880133DA
:101420009BB23046A38001F036F80020D4E700BF1D
:101430000A7000F073B504460D46C07DE67E0029B3
:1014400034D001230422314601F00CFB0123022297
:10145000217F207E01F006FB94F83130022B16D15B
:1014600000230122617F607E01F0FCFA0023042248
:10147000A07EA17F01F0F6FA0123627F607E0193D6
:101480000093114601F0A2FA002002B070BD032BB8
:10149000FAD100230122617F607E01F0E3FA00238C
:1014A0000422A17FA07E01F0DDFAEDE70B460A469B
:1014B000314601F0D7FA2B462A46217F207E01F0E3
:1014C000D1FA94F83130022B10D12B462A46617F95
:1014D000607E01F0C7FA2B462A46A07EA17F01F06C
:1014E000C1FA627F607E01950123C9E7032BCBD14E
:1014F0002B462A46617F607E01F0B4FA2B462A46CD
:10150000CFE72DE9F04104460E461746FFF7CEFD22
:10151000804650BB082000F0CFFF0546A26A9388A2
:101520009BB213B194F82E3013B394F8322022BB3F
:1015300023681D6915F0020533D0012384F830308B
:10154000002A3FD13744BE42206836D103699E0647
:10155000FCD555B994F83230002B42D123685A6F2C
:1015600022F002025A670822DA604046BDE8F081A4
:10157000002DD4D0FFF770FBD0E7012A1BD12368E0
:101580009D6815F00205D8D1596C8807FCD4042158
:10159000596099688907FCD5596D41F00201596578
:1015A000CBE70421D96019698907FCD5596F41F04F
:1015B00002015967C1E70025BFE716F8011B01F0DA
:1015C0004CFCC0E7012AD0D13744B742206803D190
:1015D00083681907FCD5BCE716F8011B01F013FB63
:1015E000F3E7012BC1D123685A6C9207FCD45A6DE2
:1015F00022F002025A6508225A60B6E710B5044686
:10160000B0B190F82E3033B990F83130022B0AD0B7
:101610006068FFF7B9FA94F82E300133DBB284F832
:101620002E30002010BDFFF72FFE0028F3D1EFE78A
:101630000048F7E7027000F010B50446D0B190F80A
:101640002E30CBB190F82E30012B06D190F83130EE
:10165000022B0AD06068FFF7B7FA94F82E30013BEE
:10166000DBB284F82E30002010BDFFF70DFE0028FD
:10167000F3D1EFE70148F7E70148F5E7027000F022
:10168000057000F037B590F83150022D044618D19E
:10169000A37F407D01229A40A37E30215943134B02
:1016A0000B4410B903F1806303E0012805D103F175
:1016B000C0631A60002003B030BD217D0029F6D13F
:1016C000F0E7012DF6D1037D73B911238DF80730B2
:1016D000FFF794FF2A460DF107012046FFF711FF9F
:1016E0002046FFF7A9FFE5E71323EFE70CA0004032
:1016F000F0B587B004461646FFF7D8FC0546F0B9AA
:10170000CDE9011604936A460E4B606A039601A95F
:101710000593FFF751FE054688B994F82C3073B94C
:101720002046FFF7FDFD00992046FFF733FD94F8B2
:101730003130032B03D025752046FFF7A3FF284641
:1017400007B0F0BD017000F073B5506A01A91446EE
:10175000FFF7E0FC334B98422FD094F83200019B06
:1017600000282DD12268116C11F4007136D02E4959
:10177000196198604FF40073936400F088FE01993A
:10178000CD68064635B14A688B682046D31A0A6888
:101790000969A84701A9606AFFF7D6FC606A8588D5
:1017A000ADB2002D2FD001A9FFF7B4FC019920465E
:1017B000FFF7F0FC304600F06EFE012002B070BD75
:1017C00001281CD12268D16A11F080010FD016497E
:1017D00019610021996080235363CEE7106CC50521
:1017E0000DD51248186199604FF48073C4E7D06A30
:1017F000400604D50D48186199604023ECE70022AB
:101800001A619A60B9E7012323752046FFF73AFF72
:1018100094F8313084F82C50032BCBD02046FFF7BE
:101820009DFDC7E70B7000F00D7000F00C7000F02C
:101830002DE9F041094F04460D460FCF88B001AEA7
:101840000FC697E8070086E80700002C00F03A82F0
:1018500045B9034E304608B0BDE8F08164A40000ED
:10186000037000F034220021204606F0DCFE204602
:10187000FFF72EFC06460028ECD12B7C84F8313093
:10188000C94A2B682360934284F8320040F081817A
:10189000C64B2362C64BE3604FF440232361D5E976
:1018A00006230026626216805680968084F82C609B
:1018B000A3621E805E809E806B6803936B89ADF887
:1018C0001430AB89ADF81230AB7B8DF810300121AC
:1018D000EB7BB84884F82D6084F82F6005278DF8DD
:1018E00016308DF8117000F0B7FA0121B24800F0FF
:1018F000B3FA0121206A00F0AFFA01A928688DF837
:10190000046001F02BFAD5F800C00320CCF8740075
:10191000DCF878106A7A2B7A21F4F85121F01F0153
:10192000114341EA0321CCF878102168DFF878C22E
:10193000614540F04981BB4216D9991F042940F204
:101940005F81A3F10B01B94240F25C81A3F1110167
:10195000062940F25981A3F11801062940F2568167
:101960001F2B14BFFF263E46042AE67540F2508125
:10197000511F042940F24E81A2F10A01052940F2CB
:101980004B81A2F11001062940F24881A2F1170112
:10199000072940F245811F2A14BFFF21002121762B
:1019A000002B58D0012B56D0022B54D0032B52D0F1
:1019B000042B50D0052B4ED0062B00F03B81072B7B
:1019C00000F03A81082B00F03981092B00F03881B2
:1019D0000A2B00F037810B2B00F042810C2B00F01A
:1019E00021810D2B00F020810E2B00F01F810F2B89
:1019F00000F01E81102B00F01D81112B00F01681CC
:101A0000122B00F01581132B00F01481142B00F021
:101A10001381152B00F01281162B00F01181172B6A
:101A200000F01081182B00F00F81192B00F00E81AF
:101A30001A2B00F00D811B2B00F00C811C2B00F0E9
:101A40000B811D2B00F00A811E2B00F009811F2B3A
:101A50000CBF0723FF23E376002A00F01581012A3B
:101A600000F01481022A00F01381032A00F0128191
:101A7000042A00F01181052A00F0FA80062A00F0FD
:101A8000F980072A00F0F880082A00F0F780092A78
:101A900000F0F6800A2A00F001810B2A00F0008194
:101AA0000C2A00F0DF800D2A00F0DE800E2A00F004
:101AB000DD800F2A00F0DC80102A00F0D580112A8A
:101AC00000F0D480122A00F0D380132A00F0D280D4
:101AD000142A00F0D180152A00F0D080162A00F0D8
:101AE000CF80172A00F0CE80182A00F0CD80192A66
:101AF00000F0CC801A2A00F0CB801B2A00F0CA80AC
:101B00001C2A00F0C9801D2A00F0C8801E2A00F09F
:101B1000C7801F2A14BFFF23002323776B7C6376C3
:101B2000AB7C6377EB7CA3762B7DA37701212046EA
:101B3000FFF780FC064600287FF48CAE00F0A7FC7F
:101B40002F7C032F804640F0AD802B685A6F42F007
:101B500030025A675A6E42F004025A662A8CDA67DB
:101B600028684FF0FF3383642B7C032B0CBF0521C7
:101B7000042101F0C9F82B684FF44062DA60FEF7E7
:101B800099FF2046FFF702FC0646404600F083FC22
:101B900060E60A4A93427FF45CAE094B2362094B2C
:101BA000E3604FF4502379E6000001400022040076
:101BB00001000C004041050000250A00000401401E
:101BC0000032040001000D00DFF804C161457FF41C
:101BD00040AE052B7FF6C8AE991F042910D9A3F19A
:101BE0000B0105290ED9A3F1110106290CD9A3F186
:101BF000180106290AD91F2B14BFFF260526B3E6B4
:101C00000126B1E60226AFE60646ADE63E46ABE665
:101C10000021C4E60121C2E60221C0E60321BEE69E
:101C20000521BCE6072316E7082314E7092312E77A
:101C30000A2310E70B230EE70C230CE70D230AE71A
:101C40000E2308E70F2306E7002304E7012302E73A
:101C5000022300E70323FEE60423FCE60523FAE65D
:101C60000623F8E6082358E7092356E70A2354E732
:101C70000B2352E70C2350E70D234EE70E234CE7CE
:101C80000F234AE7002348E7012346E7022344E7FE
:101C9000032342E7042340E705233EE706233CE70E
:101CA00007233AE7022F7FF45BAFFFF723F8607F4B
:101CB0000549FFF72DF8A675267567752046FFF7CD
:101CC000E1FC4DE7014EC5E5A5120000027000F0F1
:101CD00000040140F0B587B004461646FFF7E6F968
:101CE000054600BBCDE9011604936A460F4BA06A76
:101CF000039601A90593FFF75FFB054698B994F891
:101D00002D3083B900F0C3FBA36A9B889BB20646C3
:101D100033B100992046FFF75FFA012384F8303091
:101D2000304600F0B8FB284607B0F0BD017000F067
:101D3000044BDA68D20604D510225A61024B012204
:101D40001A70704700800140F11F00200C4B984230
:101D500010D90C4B984210D9022201230A490B607A
:101D60000A49D1F8003123F0807343EA0263C1F8D5
:101D70000031704700221346F0E70122FBE700BF65
:101D80000048E8010090D0034000C84300400E40E6
:101D90000A490B4B88425A680BD90A4988420AD92A
:101DA00002F040715A6822F0407242EA01625A60C1
:101DB00070470021F6E70121F4E700BF40787D017C
:101DC00000000E40005A620238B5064C41F67133ED
:101DD000256C236401F046F8FFF7DAFF0DB100230C
:101DE000236438BD00000E40044BD3F84421D207D1
:101DF00003D4D3F840211042FBD1704700400E407D
:101E00000C4AD2F89030516A0B4B21F0300141F06E
:101E1000100110B55162146BC0F3C31103310F29C7
:101E200003EA040328BF0F21034343EA017313634A
:101E300010BD00BF00400E4000F8FF0F38B5054C44
:101E400041F67133256C2364FFF7A2FF0DB1002327
:101E5000236438BD00000E40C0F30322013A38B5B8
:101E60000546092A13D8DFE802F0231312120516DB
:101E700019121C20104C0020C5F3043508B1FFF7DF
:101E8000B3FF04F1047405EBC404A400216038BD61
:101E900000200A4CF0E70120094CEDE71020094C26
:101EA000EAE74FF48030084CE6E70020074CE3E710
:101EB0000020074CE0E700BFB0400E40C0400E409D
:101EC000E0400E40E8400E40F0400E4050410E40D1
:101ED00000400E4000F00F000138072848D8DFE826
:101EE00000F0040F1947232D4735244BD3F89430C5
:101EF00003F00703023B022B3CD8214AD05C704719
:101F00001E4BD3F8803003F00703013B032B33D87B
:101F10001C4AF3E7194BD3F8843003F00703013B65
:101F2000032B29D8184AE9E7144BD3F8883003F07B
:101F30000703013B032B1FD8144ADFE70F4B1B6F2E
:101F400013F0010F14BF0920072070470B4BD3F883
:101F50005C3103F03003202B06D0302B06D0102B41
:101F60000CBF0720012070470420704708207047ED
:101F700000207047052070470120704700400E4048
:101F800080A4000083A4000087A4000083A40000B4
:101F900008B50146FFF79EFF1B4B994211D01B4B22
:101FA000994212D01A4B994204D11A4BD3F88000AF
:101FB00000F007000138032824D8DFE800F00A0EFB
:101FC0001612144BD3F88400F2E7124BD3F88800B2
:101FD000EEE7BDE8084000F0B7BFBDE8084000F0FC
:101FE000B9BFBDE8084000F0B2BF00F063FF094B85
:101FF000D3F80031C3F300635A1C01239340B0FBB4
:10200000F3F008BD0020FCE703001E0005002200DD
:1020100002001C0000400E4000F47810B0F5801F54
:1020200008B577D016D8B0F5802F2DD005D868B177
:10203000B0F5003F33D0002008BDB0F5402F34D0BC
:10204000B0F5602F52D0B0F5202FF4D1BDE8084094
:1020500000F00CBFB0F5E01F2FD00AD8B0F5B01FCC
:1020600030D0B0F5C01F38D0B0F5A01FE3D1304854
:1020700024E0B0F5081FFAD0B0F5401F3DD0B0F510
:10208000F01FD8D12B4819E000F0F0FE2A4BD3F80E
:102090000C31C3F308230133B0FBF3F0CCE700F0BD
:1020A000E5FE254BD3F80831F3E700F0DFFE224BC5
:1020B000D3F81431C3F30423EDE72048BDE808400A
:1020C000FFF766BF1D48FFF763FF1B4BD3F82021C6
:1020D00002F00F0201239340DEE71648FFF758FF96
:1020E000154BD3F8282102F00302F3E71448FFF759
:1020F000F1FE07280ED00928A7E71248FFF7EAFEED
:10210000072807D0082808D0042894D1BDE8084043
:1021100000F0E2BE0C4B18688EE700F0A7FE064BFD
:10212000D3F80031C3F3042303FB000084E700BFAE
:102130000500220003001E0000400E4002001C00AB
:1021400006000E00B80030004C0100200E4B5A6A09
:1021500012F0300F04D0202913D0302900D011B94B
:102160004FF4400200E0094AD3F8901032EA01012E
:10217000FAD1520246BFD3F8A000C0F3802001205C
:1021800070474FF40002EFE700400E40FF03E10705
:1021900002280AD129B1064B4FF48060C3F8A80089
:1021A000596612B10220FFF7D1BF0120704700BF6E
:1021B00000400E40F8B504284ED8DFE800F00A03CE
:1021C00011616600802640250623072400294ED091
:1021D00046E04FF400764FF4807508230924F5E7B4
:1021E000002942D02B4C636A13F0300F35D1636A5B
:1021F000DB0705D5636A23F0300343F01003636205
:10220000042502230324234E3566234E33449B00CA
:102210001F68002FFCD0FAB13444A4002368002BBF
:10222000FCD0022818D1B9B11A4E716A11F001011F
:1022300018D001222021FFF7ABFFD6F89C700122B5
:1022400000210220FFF7B6FFC7F30A00FFF7D8FD11
:1022500035662368002BFCD0F8BD04250223032437
:102260000021D0E7FFF772FFE7E708260223094ABB
:102270001666094A1A4492001368002BFCD1EBE75A
:102280000125022600232C46A0E720261025042342
:1022900005249BE700400E408004F21000F00F0080
:1022A000013810B5072842D8DFE800F00F043D419F
:1022B0003B5B4166494C0139092938D8DFE801F018
:1022C0004F383F37374637373735023903292ED84D
:1022D000DFE801F02402181E012003240122114628
:1022E000FFF768FFFFF770FD3D4B3E485C67FFF767
:1022F00093FEFFF72BFD00F0DDFD0021BDE810404F
:10230000FFF79CBD3848FFF721FD02200446E5E7B2
:102310003548FFF71BFD01240320DFE700200424DC
:10232000DCE7324CC7E7324CC5E70423236010BD1D
:10233000012211460020FFF73DFF0223F6E70122AC
:1023400011461046FFF736FF0123EFE700F0B2FD1C
:10235000FFF7FCFC274B01221A600323E6E700236A
:10236000E4E7072904D00929E1D11D4B012201E04E
:102370001B4B00221A67DAE701390729D7D801A3D6
:1023800053F821F0D72300002F2300002F23000053
:10239000C92300002F2300002F230000BB230000CF
:1023A000A523000003220E49D1F85C3123F030034D
:1023B00043EA0213C1F85C31B9E701221146042057
:1023C000FFF7F8FE0122EEE7012211460220FFF797
:1023D000F1FE0222E7E70022E5E700BF80400E4061
:1023E00000400E4000050A000148E80188400E4008
:1023F00084400E400016C84310B504461120FFF774
:1024000069FD012200210220FFF7D4FE1A4A217C37
:10241000536A23F00103022908BF43F0010353620A
:10242000164B21781960936AE17A23F007030B4376
:102430009362A188637A43EAC123D362136BA07AC3
:10244000217A03F07F630343E08843EAC02343EA31
:10245000C11303310F2928BF0F2143EA017313630E
:10246000A37B617B1B0143EA0133E17B0B43217BAF
:1024700043EA0143536310BD00400E40A004C8432B
:10248000EFF3108072B6704700B962B67047EFF391
:10249000108072B67047FFF7F7BF00004109054A88
:1024A00000F01F0352F82100D840C04300F00100A3
:1024B000704700BF00E100E010B50446EFF3108361
:1024C000DB0733D4FFF7EAFF00282ED1002CADBF85
:1024D00004F1604404F00F04154B04F56144B4BFEB
:1024E0001A5D94F800235209EFF3118313B1B2EB94
:1024F000531F1BD20F4C6368C3F30803ABB1103BEF
:10250000DBB259B20029BBBF03F00F03043B01F15A
:1025100060431B19AABF03F56143187E93F80003BB
:102520004009824234BF0020012010BD0120FCE799
:1025300014ED00E000ED00E01848194BC26C1B8858
:10254000C2F303222833013202EB820103EB53036F
:10255000B3FBF1F3C16C013B072B21F0EE6128BF07
:10256000072341F4801141EA0363C3640D4BB3F9BF
:102570000030002B10DB2833510801EB420203EB43
:102580005303B3FBF2F3026D072B28BF072322F09E
:10259000700242EA03130365704700BF00300E402B
:1025A000F41F0020F61F0020134B9A6FD207FCD4B3
:1025B0001B6C13F003031EBF104A012111608342FC
:1025C00003D108B90D4B1860704723B9012802BF29
:1025D0000B4B02221A70084A1146936FDB07FCD49A
:1025E000136C23F00303034313648B6FDB07FCD4EA
:1025F000003018BF0120E5E700300E40B40AC643A2
:10260000F81F0020A0F5E163B3F5966F2DE9F047C0
:1026100003D900210846BDE8F0875F4C5F4BD4F832
:102620006851DB6CB0F5E16F1FBF4FEA156AC5F367
:1026300007484FF496694FF4E16701BFC5F3072AD5
:102640005FFA85F84FF416794FF49667B0F5E166B6
:10265000C3F3017C18BF012646EA0C2E40F2011399
:102660009E455BD0BEF5817F09D2BEF1010F1BD024
:102670005DD3BEF5807F5DD000252B4619E040F28A
:1026800001239E4550D005D8BEF5007FF4D1D4F883
:1026900070310BE0BEF5407F4FD040F201339E45D4
:1026A000EAD1D4F878313BE0D4F87431C3F307258C
:1026B000DBB2C71BAAEB080E07FB0EFEBEFBF9FE42
:1026C000C644D645A5D8A5EB030807FB08F7B7FB1A
:1026D000F9F73B44AB424FF000079AD882B1DFF8DC
:1026E000BC80D8F85C5025F4FE4525F00205B0F515
:1026F000E16F45EA0E2518BF02273D43C8F85C503C
:10270000002946D0226DD2B2032A19D8B0F5E16F64
:10271000D4F87C211FD0C2F307221DE0D4F8743115
:102720001D0EC3F30743C4E7D4F87831BEE7D4F8ED
:102730006C31BBE7D4F86C31F2E7D4F87031EFE7D5
:10274000BCF1020FD4F880211ED0BCF1030F1ED0C3
:10275000BCF1010FDFD0D2B2120312F4702F7FF45C
:1027600058AF0E4CE06E20F470400243E266626E99
:1027700022F4FF72E72B22F0010228BFE723324345
:1027800042EA4303636645E7C2F30742E4E7120EF9
:10279000E2E701213EE700BFB081E00F00300E40CC
:1027A000194B1A6FD96CC90702F0070214D5012A18
:1027B00012D9132823D9143813288CBF10230823C7
:1027C0001148013BC26C190322F47F4241EA032302
:1027D0001343C364FFF7B0BEDB6CD90706D4012AEC
:1027E00004D809280BD90A380928E6E7064BDB6C20
:1027F00013F00103E4D0012A03D82728DDE70423DE
:10280000DEE70023DCE700BF00300E40054A064B40
:102810001B68136F23F007031843044B10671888D5
:10282000FFF7BEBF00300E408009C643F21F0020F4
:10283000534B37B502229A639B6B03F00F0393420D
:10284000054603D00024204603B030BD4D4BD3F8DD
:102850006C3101331DD04C4B1A68043B1B681A6065
:102860004A4B1A68043B1B681A60494B1A68043BC0
:102870001B681A60474B1A68043B1B681A60464B7A
:102880001A68043B1B681A60444B1A68043B1B68B7
:102890001A60E988B5F90C004A2965D9B1F5FA7FC3
:1028A00064D340F6C313994294BF4FF000514FF0E8
:1028B0004051334CE36C23F0405323F001030028D4
:1028C000A8BF43F001030B43E364E36E43F080735E
:1028D000E366334B186800B10420FFF797FF236EBF
:1028E00023F0C0432366E36C43F0060301A8E364CE
:1028F00000F0ACF99DF80500012812D19DF80430D4
:10290000022B0ED827490B785BB9274A136843F08E
:1029100001031360236E254A1A40254B1343236697
:102920000870244B29891980234BB5F90C201A8093
:10293000224BA8881880FFF733FFAB7BCBB1012B6C
:102940001BD0012211466888FFF75CFE0446002870
:102950003FF478AFAB7A1A4A6878003318BF012386
:102960001360FFF721FE6EE70021A2E74FF08051D0
:102970009FE7034B134A9A65E3E7014B124AFAE7D4
:1029800000300E40B081E00F3C80E00F4480E00F4B
:102990004C80E00F5480E00F5C80E00F6480E00F1B
:1029A0008009C643F81F002044300E40000F0EF08F
:1029B000B4C0400BF41F0020F61F0020F21F0020BF
:1029C0009407C64377402057372110B7072A70B5C0
:1029D00001F003014FF00F0523D896001A4CB540C3
:1029E000256004F10074B04020600320B04001FA7B
:1029F00006F61649086001F100710E601449114491
:102A000089000B609DF81030C1F88030012303FA73
:102A100002F2104BC3F824249DF81430C1F800339F
:102A200070BDA2F10804A4000B4EA54035600B4D0B
:102A3000A04028600320A04001FA04F4084908607F
:102A400001F100710C60D9E700A4004408A400441F
:102A50008020851000A0004004A4004404A4004687
:102A60000CA40044F0B54AB130261E4C0125464363
:102A70008D4034440BB304F1C064256030244443DA
:102A800004F18044072904F5204419D865688E00B4
:102A90000F27B74025EA070502FA06F635436560B9
:102AA00052B9012202FA01F1302250430D4A024488
:102AB000A3B102F1C0621160F0BD04F18064DCE7F3
:102AC00001F18045083DA668AD000F27AF4026EA1A
:102AD000070602FA05F53543A560E1E702F18062D9
:102AE000E9E700BF0CA00040034B03449B0081F0CA
:102AF00001011960704700BFA001F11010B5044634
:102B000001211148FFF7A8F9637822781B0243EAF4
:102B10000263A27813430D4A136000231362D36249
:102B200053634FF00043D3664FF0FF339366084A78
:102B30004FF48071C2F88011E3785B01DBB282F858
:102B40000833116010BD00BF00450A0000200E4090
:102B500000E100E02DE9F041C3B2254D91F80AC033
:102B60000F7B01260C469E404FF03008CB7A497B04
:102B700008FB00504FEA035E2368C0F880304EEA3D
:102B80000C4343EA475322F00302C0F88810C0F810
:102B90008430C0F89820AE66FFF779FCEB6E3343C3
:102BA000EB66237A13B16B6B33436B63637A13B1B8
:102BB000EB6A3343EB6222792B6822B1D2431202D3
:102BC00062F47F42134062790AB143EA0223A27998
:102BD0000AB123EA0203E27902B11343044A136003
:102BE000044B1E60D663BDE8F041FFF754BC00BF44
:102BF00000200E4028200E44036CDB0702D4436CF7
:102C00000B42FCD1704710B502460C469368DB06B8
:102C1000FCD540211046FFF7EFFF946210BD000085
:102C2000044B41F671321A649A6822F001029A60EC
:102C3000704700BF00000E40034B9A6822F001026B
:102C40009A6000221A64704700000E400B4A5369D4
:102C500011699B0003F03C03C1F381110B438370A6
:102C6000136903F03F0343709369D26903F0F003E3
:102C7000C2F3031213430370704700BFD0FF0FE08D
:102C800070B5054616461C4619B91448FFF7C4F935
:102C90000146202C08D001D8ECB170BD402C18D0D2
:102CA000602CFAD1042200E0082206FB02F35A0845
:102CB00002EB4112B2FBF3F2094B203A03EAC202E3
:102CC0002B6823F060032B602B681C432C606A6127
:102CD000E3E70622E9E71022E7E700BF40410500ED
:102CE000F8FF7F0038B50546144619B90548FFF7C7
:102CF00093F9014601396400B1FBF4F109026961FD
:102D000038BD00BF40410500CB435B0003F00A0320
:102D1000C360C1607047000040F6AA63C36041F21F
:102D200005020023036042600A4A83604361C36472
:102D30008264094A43679042836702F58062C367F1
:102D400001D0904200D103659042836508BFC365FE
:102D5000704700BFF9FF01000000014038B505468B
:102D60000C46FFF7D9FF8B7C1BB1036843F080430F
:102D70000360E37C1BB1237D43F08003AB65228AB3
:102D8000637B1343E28913436B60D4E90112237B15
:102D90002846FFF775FF637D1BB12B6843F4803332
:102DA0002B60A37DE27D1B07120502F4E00203F015
:102DB000E04313432B666B6F23F030036B676A6F3E
:102DC000237E13436B672378EB6038BD38B50C4620
:102DD0000546FFF7A1FF0A8A897B0368002942F0B4
:102DE000010214BF4FF48061002113430B43227D85
:102DF00003600368002A14BF4FF0005200221343FF
:102E00000360A37C1BB1E37C43F080038365237BD9
:102E100043F480536B60D4E901122846FFF762FF48
:102E2000637B0BB11023EB60637D1BB12B6843F414
:102E300080332B60A37DE27D1B07120503F0E04386
:102E400002F4E00213432B662378EB6038BD03697C
:102E50001B06FCD5C069C0B2704703695B06FCD590
:102E6000416370470048704700F049020D4AD2F8AC
:102E7000943003F00703032B11D0042B03D0022B53
:102E80000BD1094B00E0094B1868D2F80031C3F3AD
:102E900004230133B0FBF3F07047054BF4E74FF424
:102EA0000040F2E700400E40540100205C01002089
:102EB0005801002008B5FFF7D9FF054BD3F80831BA
:102EC000C3F308230133B0FBF3F0024B186008BDD5
:102ED00000400E4050010020014B1868704700BFB1
:102EE00054010020054B1860054BD3F8943003F0D3
:102EF0000703022B01D1FFF7DDBF7047540100200B
:102F000000400E400D4AD2F8883043F47003C2F8F6
:102F100088300B4B5A6D42F400525A651A6C22F0FD
:102F200003021A64074A136823F00103136052F87E
:102F3000143C23F0805342F8143C704700ED00E04D
:102F400000300E4074300E404FF4004070474FF494
:102F50007A707047014B1868704700BF5C01002011
:102F60007FB5094B6A4603F1100615461868596883
:102F7000144603C40833B3422246F7D12846FFF76C
:102F800057FC04B070BD00BF8CA4000070B51A4B94
:102F900086B001AA03F11006154618685968144650
:102FA00003C40833B3422246F7D11B882380284646
:102FB0004FF096130293FFF71FFA1048FFF792FFA6
:102FC000012211460220FFF7F5F804211120FFF736
:102FD00065F9002211460320FFF7ECF803210848A9
:102FE000FFF75CF903210748FFF758F9032106486A
:102FF000FFF754F906B070BD9CA4000000F0490230
:1030000002001C0003001E000500220013B51C4B2B
:10301000DC6C01A8240EFFF719FE8E2C1CD8194970
:10302000D1F8B00040F00403C1F8B030164B4FF0B7
:1030300050121A601A631A66C3F89020C3F8C020B1
:10304000C3F8F020C1F8B0000E4AD36A23F07F0322
:1030500043F02003D36201E08F2CF5D99DF80530B1
:10306000012B01BF094A136843F004031360084BA6
:1030700000221A60FFF774FFFFF788FF02B010BD4F
:10308000B081E00F00400E4000A0004064310E40CF
:10309000B40AC64308B501210448FEF7DDFE00F07E
:1030A00009F8BDE8084000F0A1B900BF00250A00FA
:1030B0000020704708B501210D48FEF7CDFE012123
:1030C0000C48FEF7C9FE0422114600230520FFF735
:1030D000C9FC0521084600230422FFF7C3FC002396
:1030E000042206210520FFF7BDFC002008BD00BF1B
:1030F0004041050000250A0002280DD8084B03EBCB
:10310000C00213F83030516801228A4030215943FF
:10311000044B00205A5070474FF0FF30704700BFFB
:10312000B0A400000CA0004402280DD8084B03EB0B
:10313000C00213F83030516801228A4030215943CF
:10314000044B00205A5070474FF0FF30704700BFCB
:10315000B0A400000CA00046022810D8094A12F8BA
:10316000301002EBC0020020536801229A40302345
:103170004B4303F1804303F520439A6170474FF0BE
:10318000FF307047B0A4000008B500F013F808BD88
:1031900082B000EB40000021CDE90001DDE9002311
:1031A00012F1FF3043F1FF311343CDE90001F5D1B6
:1031B00002B070472DE9F0418AB0FFF727FFFFF713
:1031C00069FF14220DEB0200002105F02CFA474B99
:1031D00006930D238DF81E300523012402260727B0
:1031E0008DF8223005A90C234FF0FF308DF81460C4
:1031F0008DF81C708DF81D408DF823408DF824301B
:1032000001F088FD3A4B0FCB01AD85E80F00284651
:1032100000F0AEF9374B3848D3F8903003F48073A0
:10322000002B0CBFA0464FF00008214614BF3546C6
:103230000325FEF711FE224621464046FEF7BAFF5F
:1032400029462E48FFF72AF829462D48FFF726F889
:1032500029462C482C4DFFF721F821462B48FEF734
:10326000FBFD21462A48FEF7F7FD28462949FFF7CE
:10327000ADFD0B236B6703F10B23AB6730460023D7
:1032800004220621FFF7EEFB324639463046002382
:10329000FFF7E8FB3046002304220821FFF7E2FB9A
:1032A0000422234611461C4F1C4E0020FFF7DAFB78
:1032B000102442F21070FFF76BFFAB2128463C60F0
:1032C000FFF7CBFD2846FFF7C2FD34601E20FFF755
:1032D0005FFFB92128463C60FFF7BFFD2846FFF796
:1032E000B6FD34600AB0BDE8F08100BF006A180086
:1032F000C8A4000000400E4000050A0002001C00A7
:1033000003001E00050022000004014040410500AA
:103310000032040078A500000CA000440CA0004678
:1033200000207047FEE74FF400534B6000207047C9
:103330000120704700207047F8B50E468F180D46E3
:10334000BD42A5EB060405D1002C08BF4FF0FF34A9
:103350002046F8BD00F0ACF8431CF5D005F8010B91
:10336000EEE70000044B1968024609B903491960E9
:10337000186802441A607047FC1F0020982A002039
:1033800070B50E4615460C46A31B9D4201DC28462F
:1033900070BD14F8010B00F0BDF8F5E70F480369A4
:1033A0001B0670B514D50E4D2B68072B11DC0D4C88
:1033B0002668FFF74CFD0C4B9855236801332360BA
:1033C0002B6801332B602368082B01D10023236075
:1033D00070BDC36C23F00403C364F9E7000001402F
:1033E0000C200020142000200220002030B50121F4
:1033F00089B02748274DFEF72FFD01212648FEF70B
:103400002BFD0123042202210020FFF72BFB0023C8
:10341000012211461846FFF725FB0FCD01AC0FC462
:1034200095E8070084E8070001211C481C4CFEF7C2
:1034300013FD08A9002501F81C5D2046FFF78EFC4E
:1034400003236367A26F22F4F85222F01F0242F4B2
:1034500000720423A267A364124B4FF40061C3F807
:103460008011E26C42F00402E264204619600521FA
:10347000FFF74AFC0C4B186802222B46294680684D
:1034800005F0E8FC094B01221A7009B030BD00BFFD
:103490004041050090A5000000250A00002204001C
:1034A0000000014000E100E0B803002001200020FE
:1034B000134B1B7810B50BB9FFF798FFFEF7E7FF2A
:1034C000104B1A68002A18DD0F4A104C1168645C12
:1034D0001168013111601168082904BF00211160D1
:1034E0001A68013A1A600A4AD36C43F00403E4B242
:1034F000D364FEF7D0FF204610BD4FF0FF34F8E74D
:10350000012000200C20002010200020022000209C
:103510000000014038B50E4B1B7804460BB9FFF78D
:1035200065FF0C4D2A782AB10A2C03D10D210A48D7
:10353000FFF793FC21460848FFF78FFC2B782BB14F
:103540000D2C03D10A210448FFF787FC204638BD23
:1035500001200020002000200000014010B9024B93
:1035600018687047014BFBE71C2000202420002036
:10357000064B027B1A70064B02681A60054B4268C4
:103580001A60054B82681A600020704718200020DE
:103590001C200020242000202020002047F6FF735C
:1035A0009A4270B50D46144658D02D4B1B682BB16E
:1035B0002C4B1B6813B12C4B1B6813B92A2101F04B
:1035C00091FB2846FFF7CAFF012D0ED1264B196843
:1035D000062331F91320A24218B202DC0130C0B236
:1035E00070BD013BF5D11846F8E7B0F90010A142D3
:1035F00003DB1E49A142B8BF21462822A1F1C8031E
:1036000093FBF2F31A4A446815785B421BB29D4261
:10361000DCBF05F1FF331BB24FF47A7604EBC30233
:103620000133508852681BB211FB002020EAE07081
:103630009D4200F5FA70B0FBF6F203DD34F833007A
:103640009042EBD203F10053013B34F83300904237
:1036500028BF1046002808BF0120C0E7FF20BFE7B1
:103660001C2000202420002020200020C880FFFFF4
:1036700018200020284B1B6870B50D4614462BB14E
:10368000264B1B6813B1264B1B6813B92A2101F086
:1036900029FB012D0BD1072C05D82CB9204B1B6819
:1036A00033F9140070BD0724601EC4B2F6E78CB372
:1036B0002846FFF753FF012C02D8B0F90200F1E7CA
:1036C000002D14BFF823FC239C4202DBB0F900005C
:1036D000E8E7144B426819780139C9B20023A5B252
:1036E000D8B281424FEAC30004D916180133368993
:1036F000AE42F5D213184FF47A705A68B3F902103B
:103700006043801A022291FBF2F2104490FBF1F028
:1037100000B2C7E70448C5E71C2000202420002091
:1037200020200020182000200CFEFFFF06488047C4
:103730000649074A074B9A42BEBF51F8040B42F8AC
:10374000040BF8E7FCF7E0FC052F000024BD0000A7
:103750000000002094070020FEE700BF2DE9F04F95
:1037600085B0CDE90123002480460E468A462746CF
:103770004FF07B0B96B90199404805F0A5FD002C50
:1037800079DA61423E4805F0C5FA029B13B13D4823
:1037900005F048FB204605B0BDE8F08F2C215046CF
:1037A00005F024FC064690B3A0EB0A09334BC7F59D
:1037B000807209F103018A4203EB070555D32A46BB
:1037C0005346002419460134B9F1000F04D008789B
:1037D0000A2803F101031FD082F800B028194A46D5
:1037E00004F0FDFE04EB09035C1C4FF07D0905F8B5
:1037F000039000232B553A21284605F0F7FB82461B
:1038000078B9B8F1000F1FD16FF00B04B3E7504641
:1038100005F003FC8146C9E702F8010B09F1FF3905
:10382000D0E7431C3A211846039305F0DFFBF8B9B3
:10383000B8F1010F039B0DD1AAEB0502A41A224691
:103840001946681C04F0D6FE002C94DB274406F1D0
:10385000010A8FE7B8F1020F01BFAAEB05048AF84D
:1038600000908AF801000134EEE76FF00A0482E765
:103870006FF00C047FE7002487E700BF28200020BA
:10388000C3A50000DDA5000010B504467B2005F0AF
:1038900059FA1CB12146024805F03CFA012010BD3E
:1038A000D8A500000EB433B505AB53F8045B019303
:1038B000FFF7EAFF044630B90024204602B0BDE815
:1038C000304003B070470123019A29460020FFF7DA
:1038D00045FF0028F1D0EFE70CB473B506AB044602
:1038E00053F8046B01937B200D4605F02BFA1CB1B5
:1038F00021460D4805F00EFA0C4805F00BFA019927
:10390000304605F0E1FC7D2005F01CFA2946084808
:1039100005F000FA074805F085FA012002B0BDE87D
:10392000704002B0704700BFD8A50000ACA50000F1
:10393000B4A50000DDA500004FF07E634FF6FF71D7
:103940009A8830482DE9F0478A42DFF8EC80DFF8AA
:10395000EC90DFF8ECA02C4F2C4E2D4D2D4C08BFD9
:103960000022A8F800201B7AFF2B08BF012389F84A
:1039700000304FF07E639A79FF2A08BFC8228AF888
:103980000020DB79FF2B08BF10233B704FF07E63D4
:10399000DA7AFF2A08BF012232705B7AFF2B08BF58
:1039A000C8232B704FF07E639B7AFF2B08BF002348
:1039B000237005F037FA4FF07E631748196805F059
:1039C000A9F9B8F80010154805F0A4F999F8001005
:1039D000134805F09FF99AF80010124805F09AF97B
:1039E0003978114805F096F93178104805F092F9C8
:1039F00029780F4805F08EF921780E48BDE8F04788
:103A000005F088B9DFA50000182900201029002042
:103A10001129002017290020E3A50000FCA50000C3
:103A200010A6000027A6000040A6000059A600002E
:103A300071A600008AA60000142900201229002087
:103A40001629002010B54FF07E64ADF5007D236887
:103A50000093184B1B88ADF80430174B1B788DF87A
:103A60000630164B1B788DF80730154B1B788DF8F8
:103A70000830144B1B788DF80930134B1B788DF8E8
:103A80000A30124B1B788DF80B30FFF7C9F820462F
:103A900006F062F980226946204606F059F910B115
:103AA0000B4805F037F9FFF7C7F84FF6FF700DF533
:103AB000007D10BD1429002016290020182900209F
:103AC0001229002011290020172900201029002088
:103AD000A3A600000120FFF727BB000030B499B96E
:103AE0000A4B1C88A4B2651CADB21D801578084A2B
:103AF00015551A88B2F57A7F28BF19800122054B27
:103B0000054930BCFDF7F4BD30BC7047682100208A
:103B1000A8240020DD3A00006D24002030B499B9BB
:103B20000A4B1C88A4B2651CADB21D801578084AEA
:103B300015551A88B2F57A7F28BF19800122054BE6
:103B4000054930BCFDF7D4BD30BC7047682100206A
:103B5000A82400201D3B00006D24002030B50B4D33
:103B60000FCD8BB001AC0FC40FCD0FC42B682360F9
:103B7000074C01A92068FDF75BFE064B064920684B
:103B80000122FDF7B5FD0BB030BD00BFBCA60000A3
:103B900060010020DD3A00006D24002030B50D4D9D
:103BA0000FCD8BB001AC0FC40FCD0FC42B682360B9
:103BB000094C01A92068FDF73BFE0146074805F0C6
:103BC000A9F8074B074920680122FDF791FD0BB0CA
:103BD00030BD00BFE0A600006401002020A7000067
:103BE0001D3B00006D2400200A460146064808B52A
:103BF0000068064BFEF76EF8014620B10448BDE8A8
:103C0000084005F087B808BD64010020D53A0000DF
:103C100004A700002DE9F8435E4E5F4D32882B88E3
:103C20009BB2934200F0B38033882A8829889BB2E4
:103C30008B4292B238BF2A882C8836BF03F57A713E
:103C40009A1A8A1A0B2AA4B234DD54494F1C01F186
:103C5000080C01F1090E9C4206D100232B804CB3C5
:103C6000013CA4B22C8025E014F80180B8F1690F62
:103C700004EB010040F0828014F80780B8F1BF0F18
:103C80007CD1082A7ADD14F80C80B8F1990F75D12F
:103C900014F80E80B8F1790F70D1414BDFF80C9118
:103CA000E75CA9F800700133E35C002B64D1063AAD
:103CB00097425DDD34882B88328829889142A4B2EE
:103CC00088BF34889BB284BF2B8804F57A74E41AC9
:103CD000002C5CD1FEF7D4FB34802C80BDE8F84387
:103CE000FEF7D2BB00EB020C9CF806C083EA0C2363
:103CF0004FF0080C13F4004F4FEA430318BF8EEA4D
:103D00000303BCF1010C9BB2F4D101329742E9DC10
:103D1000244A12F804C0D8B2844519D10132125D88
:103D2000B2EB132F14D104F10B088844053F3A4637
:103D300041461D4804F044FC50B13A4641461A48F9
:103D400004F04DFCFAB241464FF6FF7000F048FB1C
:103D5000B9F8003006331C44A4B22C802B88B3F58C
:103D60007A7FA7D32B88A3F57A739BB22B80A1E728
:103D70001A4641F2210EC9E70634EDE70134A4B238
:103D8000B4F57A7F02F1FF3228BF002463E7BDE873
:103D9000F88300BF682100206A210020A8240020A9
:103DA000AA240020AC240020282100206C2100201F
:103DB000BFF34F8F0549064BCA6802F4E062134314
:103DC000CB60BFF34F8F00BFFDE700BF00ED00E009
:103DD0000400FA050B46034A034912881868FFF7E6
:103DE00061BD00BF1429002091A7000010B54868EC
:103DF0000C46FCF76BFD031E06DA2068064A11210B
:103E0000BDE81040FFF768BD00F0ECFB2146012043
:103E1000BDE81040FFF7DEBF02A800000B4B10B555
:103E200018680C4600F0C2FEC30706D52068084A91
:103E30001221BDE81040FFF74FBD064B20681A78ED
:103E40000549BDE81040FFF72DBD00BFCC0800209C
:103E50005CA700001829002086A7000070B54868FC
:103E60000C46FCF733FD0C4B054681B2186800F098
:103E700049FD38B12B462068084A1121BDE8704041
:103E8000FFF72ABD284600F0B7FB21460120BDE818
:103E90007040FFF7C3BF00BFCC080020D3A70000CD
:103EA0000B4B10B518680C4600F080FEC30706D512
:103EB0002068084A1221BDE81040FFF70DBD064BEF
:103EC00020681A780549BDE81040FFF7EBBC00BF39
:103ED000D008002057A700001729002081A7000064
:103EE00070B548680C46FCF7F1FC0C4B054681B2F6
:103EF000186800F007FD38B12B462068084A1121E8
:103F0000BDE87040FFF7E8BC284600F08BFB214677
:103F10000120BDE87040FFF7C3BF00BFD0080020FC
:103F2000E8A7000070B5084C0D68206800F053FE4B
:103F30000646206800F077FE3246034603492846CD
:103F4000BDE87040FFF7AEBCCC0800209BA7000086
:103F50002DE9F0411A4C4F6826680D465EB9384687
:103F60000C68FCF7B3FC174A034611212046BDE854
:103F7000F041FFF7B1BC02281ADD1349A86805F02B
:103F800042F8A8B93846FCF7A1FCC1B2304600F0AF
:103F90001FFE206800F01FFE0646206800F043FE6A
:103FA0003246034609492868BDE8F041FFF77ABC6C
:103FB0003846FCF78FFC01B2304600F020FEE8E7FF
:103FC000CC08002017A8000049A800009BA700000B
:103FD00070B5084C0D68206800F0FDFD06462068AD
:103FE00000F021FE3246034603492846BDE87040F2
:103FF000FFF758BCD00800209BA700002DE9F04136
:104000001C4C4F6826680D465EB938460C68FCF7B4
:104010005DFC194A034611212046BDE8F041FFF737
:104020005BBC02281DDD1549A86804F0ECFFC0B98F
:104030003846FCF74BFCC1B2304600F0C9FD2068A1
:1040400000F0C9FD0646206800F0EDFD044600F0D2
:10405000FFFA2346324628680949BDE8F041FFF7D8
:1040600021BC3846FCF736FC01B2304600F0C7FDF3
:10407000E5E700BFD00800204DA8000049A80000D7
:104080009BA700000B46034A034912781868FFF704
:1040900009BC00BF1229002085A8000038B5486877
:1040A0000C46FCF713FC0928054601DC00F098FBE0
:1040B0002A4620680249BDE83840FFF7F3BB00BF3D
:1040C00081A800000B46034A034912781868FFF7DD
:1040D000E9BB00BF10290020A6A8000038B5486839
:1040E0000C46FCF7F3FB0928054601DC00F082FBD7
:1040F0002A4620680249BDE83840FFF7D3BB00BF1D
:10410000A2A80000F0B5124B89B001AA0D4603F138
:104110001807164618685968144603C40833BB428A
:104120002246F7D119889B78A3700A4B218003227D
:104130001A7000F035FA1B2231464FF6FF7000F07E
:104140004FF905492868FFF7ADFB09B0F0BD00BF86
:104150003CA700006E240020B2A7000038B54868D4
:104160000C46FCF7B3FB064B054602221A7000F022
:104170004BFB2A4620680349BDE83840FFF792BB55
:104180006E240020BCA70000014804F04BBE00BF15
:10419000D4A9000070B51B4B064618780130FCF717
:1041A000E9F80446FCF708F9B8B12046FCF734F901
:1041B00021461548154DFCF758F9154B2A781B7800
:1041C0009A420FD21348144B0068012244F6206132
:1041D00000F058FB2B7801332B702046BDE870406F
:1041E000FCF702B90D4B1B78022BF6D10C4B19686A
:1041F0000C4B4FF47A7041430122304600F042FBF1
:10420000EBE700BF1C2900209C2900206E21002024
:1042100010290020D0080020954100006E240020C5
:1042200094030020094500002DE9F04F00231646B5
:1042300002F00802134387B0824666D03D4804F07E
:10424000F1FD02AA0221504600F044FDBDF80A50DB
:1042500083462946384804F05DFD05F11800FCF757
:1042600089F88046FCF7A8F80446002847D0BDF836
:104270000C300499009300F116091A46484604F0E0
:10428000AEF9059939B1009BBDF80A2009EB03008E
:10429000D21A04F0A4F9D4F81930A582190E23F02B
:1042A0007F43C4F81930C8B24B460022A3EB090C77
:1042B00065450FDC90420191009210D04046FCF71A
:1042C00093F82B46DDE900211C4804F023FD07B0DC
:1042D000BDE8F08F13F801CB8CEA0202E6E7012378
:1042E00023720023594663602246504600F0F6FCD4
:1042F0004046FCF791F841461148FCF7B6F84046B5
:10430000FCF772F80F4B01221A7006F4002200230A
:10431000134305D00C4804F085FD0120FEF704FF8F
:1043200006F00076002756EA0703D0D0074804F0CD
:1043300079FDCCE75AA900007FA9000097A90000E9
:10434000FC29002040010020B3A9000040A9000082
:1043500008B50A210848FCF777F800B9FEE70A21FA
:104360000648FCF771F800B9FEE70A210448FCF79B
:104370006BF800B9FEE708BD9C290020FC2900204D
:10438000CC290020F8B51348FCF7AFF8054600BB70
:104390001048FCF78EF80746FCF70EF8064698B171
:1043A0000D4C01222946206800F068FA3378206815
:1043B00001331A46314600F06EFC0849206809783E
:1043C0002B462A4600F073FA3846BDE8F840FCF761
:1043D0000BB8F8BD9C290020D00800201729002028
:1043E0002DE9F74F174683468A463B483B4E114618
:1043F00004F090FC07F10E090120FEF77DFE00227B
:10440000484632700192FBF7B5FF8046FBF7D4FFB8
:104410000446002849D0412343706FF0770383702E
:104420001223C3714FF0FF3303722D4B2D491D68CA
:104430000988818101351D601968019AC0F803500F
:10444000B1F1807F28BF1A6007F10D034272A0F816
:104450000AB03A4600F80E3B514604F0C0F8224636
:10446000002312F8011B4B40111B8945F9DC45EA7A
:1044700003654A462146C4F803501B4804F0AFF8D0
:104480004046FBF7C9FF41461848FBF7EEFF184BC3
:104490001B7883B11748184B0068012244F620614D
:1044A00000F0F0F9337801333370404603B0BDE8D3
:1044B000F04FFBF799BF114B1B78022BF5D1104B36
:1044C0001968104B4FF47A7041430A480122006882
:1044D00000F0D8F9E9E700BF5DAA00006E210020D6
:1044E00074210020142900201C2900209C29002070
:1044F00010290020D0080020954100006E240020E3
:10450000940300200945000010B50E4B0E481C68AE
:104510000323B4FBF3F303EB4303E41A96B0214601
:1045200004F0F8FB5122094901A804F058F81B22B5
:1045300001AB02FB04314FF6FF70FFF751FF16B0DD
:1045400010BD00BF7421002043AA0000C4A80000D1
:1045500070B50E4D0E4C2A788AB10026206800F006
:104560008BF9314620682E70012200F087F9094B43
:10457000206819783246BDE8704000F09BB9206889
:1045800000F07AF90128E8D070BD00BF400100209A
:10459000D0080020172900200E2004F009B80000E0
:1045A00008B5FFF7F9FF0C4B0C4A18604123437024
:1045B0006FF0770383701223C3714FF0FF330372E0
:1045C00000234372136801331360C0F80330044BB7
:1045D0001B88838108BD00BF702400207421002047
:1045E00014290020034B80B218804FF07E6398801E
:1045F000FFF728BA1429002010B54FF07E63074C4E
:10460000C0B22070D871FFF71DFA054B21781868E9
:104610000022BDE8104000F04DB900BF182900206D
:10462000CC08002010B54FF07E63074CC0B220705C
:104630009872FFF707FA054B217818680022BDE849
:10464000104000F037B900BF17290020D008002023
:10465000034BC0B218704FF07E635872FFF7F2B987
:104660001129002038B51B48FBF73FFF80BB1948D4
:10467000FBF71FFF0546FBF79FFE044618B3417E7C
:10468000154804F047FB154B627E19688A420BD12E
:104690002846FBF7A9FE124804F0C4FB114B18682A
:1046A000BDE8384000F0E8B80F481A6004F0BAFBE3
:1046B0000120FEF721FDA18A04F11600FFF794FA0C
:1046C0000A4B01221A702846BDE83840FBF78CBE21
:1046D00038BD00BFFC2900202CAA0000702100205A
:1046E000F8A90000D008002018AA0000400100200E
:1046F00037B51848184C04F095FB184B184800259E
:104700001D6004F08FFB1749174800F0A5F82060E2
:1047100000B9FEE74FF0011100F0B5FA134B206825
:1047200019682A4600F032FAC1B2114804F0F2FAD0
:10473000104A20680023CDE900234FF0FF324FF0EC
:10474000FF3300F035FA01460B4803B0BDE83040B6
:1047500004F0E0BA84AA0000D008002074210020F0
:10476000A8AA00008941000068020020440100203E
:10477000BCAA000008000802DAAA000013B5124B18
:1047800018689B88ADF80430104B00901B689B683C
:104790005A680F4B9A4205D80E4804F043FB022397
:1047A0008DF800300C4C6946206800F017FA00B113
:1047B000FEE7FC21206800F00BFA084B206819780E
:1047C00000F01DFA02B010BD16A90000440100203F
:1047D0003F420F0078AA0000D008002011290020D5
:1047E000034B18704FF07E631872FFF72BB900BFB0
:1047F00012290020034B18704FF07E63D872FFF728
:1048000021B900BF10290020054B4FF47A711860C0
:1048100041430448044B0068012200F033B800BF54
:1048200094030020CC0800200945000002207047B6
:10483000002070470120704700207047034B186824
:10484000034B002808BF1846704700BF7C2100209A
:10485000F4AA00000020704738B5064B04460D4608
:10486000186000F035F829462046BDE8384000F0D1
:1048700025B800BF7821002000F0C0BB08461146D3
:1048800000F036B870B506460D4611461A46FFF7D9
:10489000D5FF046833462846A446BDE8704060470B
:1048A00010B5FFF7CBFFBDE81040836818470C3008
:1048B00000F036BE0C3000F07EB9704710B50446EB
:1048C00000F0C4FF00280CBF2046002010BD0000EF
:1048D00010B5044600F066FB034A236B002B08BFAB
:1048E0001346024A136010BDBB4800009803002025
:1048F00010B50C4600F062FB1CB100F07FFB0128F4
:10490000FBD110BD406B70B5C468002318259C42D4
:1049100001D1012070BD826805FB0322D6898E4239
:1049200002D8128A8A4201D20133F0E70020F1E76F
:1049300073B50D4B0E4669461D68044600F00EFD2A
:10494000B6F9122047F6FF739A420BD09DF800107B
:1049500024792846FEF722FEA04234BF0020012021
:1049600002B070BD0120FBE7782100202DE9F04F57
:104970006B4F8BB03B680393D0E90A964388019351
:10498000039B0025B3428DF81E50044688468DF8DF
:104990001F5003D113B1019B994252D0B9F1000FBE
:1049A00000F0BA80D9F80820002A00F0B580D9F8C4
:1049B0000C20002A00F0B0805A4A04921368029337
:1049C0004FF0000A18224FF0010BD9F80C10514596
:1049D00015D9D9F8085002FB0A55E989414535D85F
:1049E000298A414532D32946204605928DF81FB0C9
:1049F000FFF79EFF059A40B38DF81EB02E4608A91A
:104A0000204600F0ABFC204600F0AEFC9DF81E20D6
:104A1000A4F10C0B8246E2B12179204600F072FC31
:104A2000049B1A68002A5CD04A4533D1396889B39F
:104A3000B1422FD1019B984518D1E662A4F80280BB
:104A4000002528460BB0BDE8F08F2E460AF1010A7A
:104A5000BBE79DF81F20002A60D09DF82010B6F912
:104A600012205846FEF79AFD0146D6E7002332464B
:104A70004146204600F07AFC05460028DDD051462C
:104A8000204600F03FFC00233A680199204600F0E0
:104A90006DFCD6E7116821B3D9F80000884220D117
:104AA0005168204600F06CFE0546E8B931682046A2
:104AB00000F066FE0546B8B9049BE662C3F80090B4
:104AC000A4F8028001233246414620463E6000F0B1
:104AD0004DFC054640B9144B31461B685846984773
:104AE000AFE7D9F80010DCE7049B1A46029B13607D
:104AF000039B3B60029B1BB11968204600F040FEFF
:104B00005146204600F0FEFB3B68002B99D0196807
:104B1000204600F035FEB6E7032592E7012590E731
:104B2000842100208021002098030020F8B50F1C6C
:104B300018BF012706460D4638461F21002400F005
:104B4000DBF838461F21B562F46200F0D5F8E8685A
:104B500023464FF6FF711827DAB2824209D30C467A
:104B6000094B0022214630461A60FFF7FFFE20461F
:104B7000F8BDAC6807FB0242D4898C4202D2002CFB
:104B8000EED021460133E7E780210020044B002AC4
:104B900008BF1A46034B0C301A60FFF7C7BF00BFAF
:104BA000BB4800009803002040887047806A704727
:104BB0000C3000F0CBB938B504460D46FFF7D6FEF1
:104BC00028B929462046BDE8384000F047BA38BD2C
:104BD0000C3000F0A3BB0C3000F0C6BB38B500F1C0
:104BE0000C040D462046002100F098FB2946204683
:104BF000BDE8384000F080BB0C3000F0AFBB73B5AF
:104C000004460E46694600F10C05FFF7F5FF3246F3
:104C10009DF800102046FEF7C1FC0146284600F032
:104C20007DFB02B070BD37B500F10C056946044646
:104C3000FFF7E2FF284600F097FB9DF800100246C0
:104C40002046FEF717FD03B030BD38B504460D46CB
:104C5000FDF716FC00232561E360BDE83840FDF751
:104C600013BC38B505460C46FDF70AFC2969EB680C
:104C70000C402343EB60FDF707FC00200CB900213A
:104C800038BD0421FCE708B501F001110C30FFF735
:104C9000DCFF002008BD0C3000F0CDBC0C3000F073
:104CA000E4BC000007B502AA4FF4007322F8023DED
:104CB0000749FFF7F3FFBDF80630B3F5007F05D1D4
:104CC000022808BF002003B05DF804FB0120FAE7CA
:104CD000882100200846114600F02CBC0C3000F062
:104CE00099BC0000024B1960024B1860FEE700BF40
:104CF0009C030020A003002008B528B9034B1960CD
:104D0000034B1868FFF7EEFF08BD00BF9C030020AF
:104D100078210020084600F0E5BD704738B1044B0B
:104D20006FF0FF021A6003F10073104018607047C3
:104D300018700844037899072DE9304804461AD5BD
:104D4000C26AC2B16FF34103037053691B685A1CF6
:104D500004D01846BDE8304801F0F4B8D0E9142377
:104D60004FF0000B03F0040C5BEA0C0305D1037851
:104D700043F002030370BDE830884FF48031FFF741
:104D800070FFD4E9142302EA000B03EA010C5BEA8A
:104D90000C03F0D004495A46A4F10C00096863469C
:104DA000BDE83048084700BFA40300200000000011
:104DB0002DE9F34781468A4662A1D1E90001524BB1
:104DC00017461E6800EA090201EA0A03134367D086
:104DD00009F40020002150EA01024C4B18BF4C4A54
:104DE000D3F8903018BF136009F48010002150EA06
:104DF00001021CBF474A136009F08052002313438D
:104E000009D0454B1B6903F07F43B3F1007F02BF1C
:104E1000424B02221A6009F0C0520023134305D00E
:104E20003F490868FFF77AFF00230B6009F0010291
:104E30000023134324D04FF0000800220023002158
:104E40000120CDE9008802F03FFC012001F028FF9D
:104E5000414670820120FFF74BFD336A314913F060
:104E6000800F14BF304A314A4FF4001313600868B2
:104E7000FFF754FF00230B60337B43F008033373C9
:104E800000220AF0040313430AD0012106F10C00AA
:104E9000FFF7E7FE2AF0040549EA000945EA010A9E
:104EA000D6E9172309EA02000AEA03010C46034681
:104EB00023438046894614D01D4B0246196830466C
:104EC0004B468847124A4FF0FF331360114A08F0EF
:104ED00008040025136054EA05031EBF154B002289
:104EE0001A60FB070DD51449144A0868136800219D
:104EF0001160134A012111701BB102B0BDE8F047E7
:104F0000184702B0BDE8F087782100200050084023
:104F1000AC030020A8030020302A002000400846EF
:104F20009C2300209823002018600846186008443D
:104F3000A40300208C230020A8230020A423002009
:104F4000A023002001001818040000002DE9F34BF5
:104F5000DDE90A67D0E91489044689EA070188EA8D
:104F6000060001EA030C00EA020B8CEA09018BEA55
:104F70000800C4E9140122F0010006EA0008002537
:104F800007EA0309194648F0C05249F00403CDE985
:104F9000005502F099FB2046FFF7CCFE284602B0F0
:104FA000BDE8F08B034A0368002B08BF1346024A92
:104FB000136070471B4D0000A403002010B50328A8
:104FC00010D8DFE800F01702101300221146012468
:104FD000204602F0CDFD2CB107490868FFF79EFE80
:104FE00000230B6010BD00220121F0E701221146D1
:104FF0001446EDE70022FAE79C2300200F4B5B6884
:10500000C3F30363013B0B2B0DD8DFE803F014144B
:105010000614140C14080A0808080320704704201A
:10502000704705207047064BDB6813F0060F14BF6E
:105030000420012070470220704700BF0040084054
:1050400000500840044BD3F8883013F0A00F0CBF79
:1050500001200020704700BF0040084008B5002034
:1050600002F0CAFC002008BD0138C0B202289CBF73
:105070000F4B53F820200F4B4FF06051196003F194
:10508000007388BF00221A604FF400121A600A4AA7
:10509000136F23F0060343F004031367074B4FF02D
:1050A000805119600423C2F884300020704700BF8B
:1050B0001CAB0000186008440000084094400846FB
:1050C0000E4B06221A600E4B0022C3F884200D4BB3
:1050D0004FF080521A60436913F0800F18BF0A49DD
:1050E0000A4B4FF4001214BF0A601A604FF400120A
:1050F0001A604FF060521A60002070477000084438
:1051000000000840944008441860084618600844AD
:10511000022310B1024A13607047024AFBE700BF46
:10512000440008464400084438B51446426982EAFF
:1051300004030B4053400A070D46436106D514F0A3
:10514000080F14BF264A274A08231360EB0706D529
:1051500014F0010F14BF224A224A0123136068078A
:105160000CD502F061FC14F0040F14BF1E4A1F4A54
:105170004FF4007313601E4B04221A60A90703D575
:10518000C4F34000FFF7C4FFEA0606D514F0100F81
:10519000184B14BF00221B22DA642B061AD514F018
:1051A000800F4FF4001317D0134A1360FDF768F90E
:1051B000124B5B68C3F30363032B06D1104A536899
:1051C00023F0F00343F0E00353600A4B01225A62DC
:1051D000FDF75AF9002038BD0A4A1360FAE700BF0C
:1051E00044000846440008441C6008461C6008440B
:1051F0008840084400000840186008460040084005
:105200007C0F002118600844022001F051BA000010
:1052100013B5012300240022CDE9003400231046F9
:10522000194602F051FA022001F0F4F9014B1C601A
:1052300002B010BDA423002002292DE9F7438046C7
:105240000E461546994603D1FFF7E2FF002026E0FF
:10525000154CFDF715F9226807460AB1AA4221D17B
:10526000124A25600123C2F800900022CDE90033E4
:1052700000231046194602F027FA0D4B00221A703F
:10528000B21A18BF01224146022001F035FA054644
:105290003846FDF7F9F8002DD8D12560012003B07C
:1052A000BDE8F0830025F3E7A4230020A823002015
:1052B000A0230020044BDB6D5B055ABF034B18781D
:1052C000012000F00100704700500840A02300209A
:1052D000022001F0AFB9026B12B11368022B02D8A1
:1052E0000C38FBF743B8536A126AD8B25043C3F381
:1052F0000723B0FBF3F070470B4600F1340118466A
:1053000001F054B808B590F86830032B04D0084673
:1053100000F096FE002008BD0220FCE770B590F872
:105320006830032B05460E4614D02971C16A99B125
:10533000FFF7FEFA48B9E8622846FFF735FC014658
:105340002846FFF713FB002070BD31462846FFF7C3
:10535000D9FFF8E70220F7E70846F5E708B5084661
:1053600000F05EFE002008BD00F064BE2DE9F047AD
:105370009846C369012B07460E46924648D001F075
:105380000DFC054601F0E2FC0446FFF737FE01285C
:1053900003D001210846FFF7ABFABAF80C30DAF86F
:1053A0000490F61A280BDAF80830C0EB8040B0FB06
:1053B000F4F4E409A34284BFB3FBF4F40134B6B2BD
:1053C00083BFB3FBF4F41A1B06FB02991C463F2E65
:1053D00081BFB2099B0103FB029906F03F0601F071
:1053E000A9FC484506D02146484601F06DFD90B124
:1053F00002200EE001F0A4FCA042F4D1B8F1000FAD
:10540000F1D13846FFF796FC0121F0B201F0DEFD44
:105410000020BDE8F08701F0A9FC18B1024801F0B6
:10542000F5FDEEE70148FAE7C0CF6A00E067350016
:10543000202102F0E3BE00004FF4807310B9024A4D
:1054400013607047014AFBE78840084688400844DB
:1054500070B504461646FFF7F5FD00284AD02046F1
:10546000FFF784FA0546002842D1244B4FF44062EE
:105470001A6016F0020204D1214B22491B789B02CC
:105480000B60214B4FF44061196022B91C4B1F4A3D
:105490005B789B02136002F0C7FA16F0040F14BF8A
:1054A0001B4A1C4A4FF4806313601B4B04221A6092
:1054B0002046FFF7BDFF18B106F00100FFF7BCFF63
:1054C000204600F011FA98B12046FFF7B1FF78B1FD
:1054D0004FF40011204602F091FE00280CBF03217A
:1054E0000421002000F0E3FA431C05D00B4B986028
:1054F000284670BD0225FBE70325F9E7A000084414
:1055000092230020A0000846A4000844A4000846F6
:105510001C6008461C60084488400844302A00206B
:1055200010B5FFF795FF044608B902F045FA20468A
:1055300010BD000037B50DF106020D4600F04EFC1F
:10554000044688B185B12B7813F0F70F0CD0FCF727
:1055500097FF074BBDF806201C60064B1A80064BD0
:105560006A881A80FCF790FF204603B030BD00BF68
:105570008C230020902300208823002073B506464A
:105580001446084611B9012002B070BD002AFAD0B5
:10559000022905D80022114600F020FC0028F2D094
:1055A00005888278280402F0070331D4052B2FD90F
:1055B000D91F4B424B412373C2F300136373C2F3F1
:1055C00080132374C2F3C003C2F34012A274637445
:1055D00001F048FBC2B2B2B1AB1F9BB269460120D9
:1055E00000F05CFA9DF80130627CDDF802105B008F
:1055F000E3739DF80030A37306F1340001F0DBFE85
:1056000020600020C0E78023E38122602272F8E757
:105610000220B9E770B506461546FFF7AFFF04460E
:1056200038B92B7A2BB13046FFF755FE294601F0E9
:1056300091FE204670BDB3FA83F308461146D3F1BC
:10564000190210B50FD4062A1346A8BF0623DAB2F2
:10565000931D01249C40A4B2A14228BF214600F022
:105660009BF9204610BD0022F2E708461188B1FAE6
:1056700081F1D1F1190110B50BD40629A8BF06217B
:10568000C9B28C1D0123A340138000F0A1F90020B2
:1056900010BD0021F5E70000094B0121D3F8EC20F3
:1056A000996203F18063243352074FF4005119606B
:1056B00041BF03F10073C83304221A60704700BF72
:1056C0000010084038B50C4BD3F8EC5003F1806360
:1056D000EC334FF480641C60084B0020186002F02B
:1056E0002FFA074B4FF400521A606A0542BF03F1CC
:1056F000007398331C6038BD001008408C230020D4
:105700005410084438B58A78CB789A4205460C463E
:105710002CD14B78BBB9FFF7D3FCA378BBB9144BA2
:1057200040F6FF725A62E078A8B9114B40F6FF725A
:105730005A6503F1C063A3F6BC7360221A600D4B77
:1057400040221A6038BD1846FFF78EFCE5E7284670
:10575000FFF7A2FFE7E7084B60221A602846FFF731
:10576000B1FF064B40221A600020EBE70120E9E779
:105770000010084088400844440008448840084617
:10578000F8B5294E00F1340705463846746801F033
:105790000FFA73682B632846FFF79DFD01F0A6FD05
:1057A000224B234A1B682989C3F381231370214BA1
:1057B0001B68C3F3812353704FF6FF73994204D0E3
:1057C0001D4B1B680BB1284698472E6BA6421CD078
:1057D0000EB3316801B1B168A5F10C00FAF7C8FD4C
:1057E000DEB13468D4B13369DBB1D3E900619C68C0
:1057F000384601F086FD68B922463146384601F048
:105800007CFD38B9384601F072FD2B7843F0020375
:105810002B700020F8BD3146DEE73446264621468F
:10582000E6E71C46FAE700BFEC0F0021A0000840A5
:1058300092230020A4000840942300204822002145
:10584000014802F0F0BE00BF442A00202DE9FF41CC
:1058500000254FF06413C0E91433C0E916354FF644
:10586000FF73056280F86C50C563C564056683826A
:10587000044600F10C07112088460395FCF72AFB2B
:1058800004282BD1384602F023F93846FFF7D6FF1B
:10589000134B60225A6403A93846FFF733FF226A8C
:1058A00006464FF0FF313846FFF73EFC4FF0C0523E
:1058B0000423CDE900551046194601F005FF4EB905
:1058C0002046FFF7EFF90646B8F1000F02D008B9FD
:1058D0002046C047304604B0BDE8F0810226F9E713
:1058E0000000084001F006B8802102F087BC0000EB
:1058F000084B09494FF48032C3F8E8200A609A6BDC
:10590000D1B2C2F3072299679A6704229A670022EC
:105910009A67704700100840EC1008462DE9F74FD1
:1059200000EB4000040104F1804404F501241D460D
:1059300026689DF83030019306F00706B31D012656
:105940009E40771E8A46636805EA0701A6EB0108B8
:1059500043F0005B42459146594418D942465046AF
:1059600002F03DFEA9EB080259460AEB080002F0DE
:1059700036FE019B43B14D443E433540E560A3688C
:10598000AB421CBF0223A36203B0BDE8F08F5046B8
:1059900002F025FEEDE7000038B50C4C2260606097
:1059A0000D46FCF76DFDD4F8E0305B0758BF0423CB
:1059B0004FF00002E260A56058BFC4F8E830FCF781
:1059C00063FD0DB10223A36238BD00BF0010084083
:1059D000044B1860044B40F6FF72196058605A621D
:1059E000704700BFAC2300203010084000EB40009F
:1059F0002DE9F84F040104F18044042A04F5012440
:105A000006D8013A032A2DD8DFE802F044413E3B94
:105A10000B78A3614B78A3618B78A361CB78A361EA
:105A20002768D4F80880D4F804A007F00707BB1D46
:105A300001279F4007F1FF3909EA0800161FA7EB6D
:105A4000000B5E4501F104054AF0005A0CD82946C6
:105A50005044324602F0C3FD06EB080249EA07074C
:105A60003A40A260BDE8F88F5A462946504402F0F9
:105A7000B6FD05EB0B01A6EB0B02504602F0AFFDA5
:105A8000EAE70B78A36101310B78A36101310B7850
:105A9000A36101310B78A361BDE8F88F37B500250C
:105AA00000951446FFF73AFF204603B030BD30237F
:105AB000584310B500F1804404F5012420462368C2
:105AC00003F007039A1D01239340226AC2F30C02DC
:105AD0008A4284BF6268E06803F1FF339BB281BFF2
