:10000000007C00202D3600005936000059360000D3
:1000100059360000593600005936000059360000A4
:100020005936000059360000593600005936000094
:100030005936000059360000593600005936000084
:10004000DD10000065810000593600000D7D0000C4
:10005000D181000071810000898100006981000068
:100060008D0C0000610D0000591C00009D32000045
:100070005936000059360000593600005936000044
:1000800059360000850D0000593600005936000031
:100090005936000059360000593600005936000024
:1000A000593600005936000059360000D58100004D
:1000B0006D810000F10E000015820000593600002D
:1000C000216E00005936000010B5054C237833B975
:1000D000044B13B10448AFF300800123237010BD1B
:1000E000980700200000000054C1000008B5034B31
:1000F0001BB103490348AFF3008008BD00000000B6
:100100009C07002054C10000154B002B08BF134B67
:100110009D46A3F5803A00218B460F461348144AAA
:10012000121A08F0FFFA0F4B002B00D098470E4B25
:10013000002B00D098470020002104000D000D483E
:10014000002802D00C48AFF3008008F09BFA200092
:10015000290000F0B1F808F05DFA00BF00000800C7
:10016000007C002000000000000000009807002034
:10017000582A00200000000000000000014B01226E
:100180001A707047C808002013B50123144C0222CE
:100190000621052002F0FAFB012302220721052097
:1001A00002F0F4FB00F0C0FD2146062000F0CAFD7D
:1001B0002146072000F0C6FD012406221146CDE9A4
:1001C00000440023052002F095FB0722CDE90044FE
:1001D00000231146052002F08DFB02B010BD00BFC8
:1001E0007D01000008B502F04BFFFFF7CDFF02F0E4
:1001F000F5FE01210248BDE8084001F0C1BD00BF85
:1002000000250A0008B503F025FC03F043FC00209C
:1002100002F006FF012002F003FF022002F000FFBF
:100220000248BDE8084008F07BBE00BFF89E000011
:1002300073B508F015FA134C134D144E8DF80700E2
:100240009DF80700431EDBB2FD2B01D902B070BD43
:100250000A2801D008F0F4FD01220DF10701204623
:1002600000F02EFA002808DD284608F0D1FD33788A
:100270001BB9074B186804F091F908F0F1F98DF8F3
:100280000700DDE7B40800209C9F00002E2400201A
:10029000CC080020054B1870054B1B78014623B194
:1002A000044B0022186804F083B97047D828002056
:1002B000D4080020CC08002007B5364BDC6C01A820
:1002C000240E02F057FC8E2C1CD83349D1F8B00014
:1002D00040F00403C1F8B030304B4FF050121A60B8
:1002E0001A631A66C3F89020C3F8C020C3F8F02040
:1002F000C1F8B000284AD36A23F07F0343F02003FB
:10030000D36201E08F2CF5D99DF80530012B01BF98
:10031000234A136843F004031360224B00241C603B
:10032000FFF760FF042002F057FE204602F090FE27
:10033000012002F08DFE022002F08AFE03F07CFA1A
:1003400004F02EF81A20FFF7A5FF03F0AFFE1648C1
:1003500008F0E6FD154808F0E3FD154B15481C7044
:1003600008F0DEFD1448154B15490068012204F021
:1003700007F9144808F04CFD134B144914484FF486
:10038000807200F091F9FFF753FF03F0A9FB03F02F
:10039000B3FFF8E7B081E00F00400E4000A000403E
:1003A00064310E40B40AC6430D9F0000339F000025
:1003B0002E240020579F0000CC08002005020000DA
:1003C00040420F00999F000000000020B407002069
:1003D000B40800200020704770470000B0F5007F8F
:1003E00038B517D801F0E0FF0C4A00234FF4017430
:1003F00004FB03F18D18895831B901222A601C468B
:1004000001F0D6FF204638BD01330A2BF0D14FF062
:10041000FF34F5E74FF0FF34F4E700BFD8080020C1
:10042000431C10B504460FD009280DD801F0BCFFBD
:100430004FF40173054A6343D4580CB104339C183C
:1004400001F0B6FF204610BD0024FBE7D8080020CD
:1004500038B5044601F0A8FF05462046FFF7E0FF47
:1004600030B14FF40170054A60431358013B1350FB
:100470002846BDE8384001F09BBF00BFD8080020E7
:1004800038B5044601F090FF05462046FFF7C8FF47
:1004900030B14FF40170054A6043135801331350D3
:1004A0002846BDE8384001F083BF00BFD8080020CF
:1004B0000A2938B504460D4609D838B101F074FF51
:1004C0000023A580236001F073FF012038BD0020C8
:1004D000FCE7F8B50F460446A0B101F065FF668859
:1004E000A5882388AE420ED2334493FBF5F205FB78
:1004F00012339BB20233013644F82370668001F058
:1005000057FF0120F8BD9A1C013344F8227093FB79
:10051000F5F205FB12332380F1E770B50446B0B164
:1005200001F042FF638883B12288A688911C0132C2
:1005300054F8215092FBF6F1013B06FB1122228078
:10054000638001F035FF284670BD1D46F9E705467A
:10055000F9E710B5044648B101F026FF6488B4FA03
:1005600084F4640901F024FF204610BD0124FBE758
:1005700073B504460D461646A2B108F045F80022B0
:10058000026001A9204608F077FE08F03DF80368F4
:10059000BBB9204608F0BFFD019B1B1B1B1A58422C
:1005A00058410FE008F030F801A9066032462046B5
:1005B00008F0F2FEED000121A940013930EA010303
:1005C000E3D0002002B070BD19B90146064808F01A
:1005D0001FBC012902D114210448F8E7022902D1E5
:1005E000034808F09DBC704700A300001DA3000055
:1005F0004BA300002DE9F843002604460546374684
:1006000085B92248224DDFF89880DFF8989008F0ED
:1006100087FC204808F084FC0CB12268A2B90120B4
:10062000BDE8F88328680028EBD008F074FD804608
:10063000686808B108F06FFD4745B8BF4746864275
:10064000B8BF06461035DBE7A368E3B17942404600
:1006500008F0DEFB6268A2B111780F4B002908BFD9
:100660001A467142484608F0D3FBE16821B10B7885
:1006700013B10A4808F0CCFB0A2008F0E1FB103463
:10068000CAE7054AEDE711462846F3E783A30000D1
:10069000FFA30000A0A30000AAA50000FBA3000088
:1006A000F7A30000F6A3000040B139B101600021BA
:1006B000C0E90212036101710846704701207047CA
:1006C0002DE9F04F16469FB00446002800F0138134
:1006D000002900F010818568E368A818984280F02E
:1006E0000E812068284407F0F9FFA26800233244F5
:1006F000A26002930093A268AA420BD8009B2BB180
:100700002068D21AA260C11807F0F3FF02981FB048
:10071000BDE8F08F23685A195B5D04930A2B01D062
:100720000D2B2AD100231370009B9D4213D0236907
:1007300005932668009B1E44711E334611F8012F55
:10074000EAB91A70784909AA304608F016FD8146C0
:10075000002840F0CE80049B0A2B05D123790D2B75
:1007600002D1009B9D4203D0029B01335BB20293F6
:100770006B1C00939DF8103023710135BBE7082AEC
:1007800003D19E42DAD2013BD8E71A700133D5E794
:100790004BF82A900AF1010ABAF1140F04D1012191
:1007A0003046FFF711FFD6E709AA5F49002008F09D
:1007B000E4FC81467BE0039B012B00F09880023B28
:1007C0000693039A019B13444FF001084FF02E0B40
:1007D0000793C24518D1069B9A4540F38880BB68B1
:1007E0000AA9504698474FF001083B681BB9059B82
:1007F000002B40F08C80B8F1000FACD1B9F1000FA4
:10080000A9D000214846CCE7039B08F1FF329A4269
:1008100010DB079B13F8012C2A2A68D1BBF1750F56
:1008200026D010D8BBF1620F1FD0BBF1730F5ED181
:1008300001220FE0019B03EB080212F8012C2A2A87
:1008400018BF9346EAE7BBF1760F05D0BBF1770FEF
:100850004DD10022042101E0002202210AAB53F80D
:100860002800FFF785FE002841D008F10108B0E715
:1008700000220121F2E71037002F43D0D7F8008083
:10088000B8F1000FB1D0BB68002BF4D04146484608
:1008900008F00CFC0028EED10DF1780B09AA2249D2
:1008A0004BF8508D08F069FC4FF0010A8146B9F110
:1008B000000F7FF46DAF7B680193002B8FD01B4935
:1008C000184608F01EFC002889D0019808F023FC87
:1008D0002A210390019808F007FC039B00283FF4AD
:1008E0006FAF019A013B134498423FF464AF022179
:1008F00056E7059FC0E74FF0FF33029306E76FF01E
:100900000103FAE7059B002B3FF47BAFB84608498B
:10091000304608F0CBFB00287FF46DAF0598FFF759
:1009200069FE804667E700BF0BA400000FA400002B
:1009300011A400000022114608F02EBD002211462D
:1009400008F09ABC2DE9F04F9B46584B85B01B78B8
:10095000109F9DF844A0DDF8508006468946154654
:10096000002B00F09280072A00F291800E9B002B52
:1009700000F08D800F9B002B00F08980129BB3F557
:10098000006F00F38480012801D1002F7FD0484BF5
:1009900003EB05131B7B002B7BD0464C1022002160
:1009A000684607F0BFFE04EB45141022B9F1000FB2
:1009B0005CD14946204607F0B5FEA37843F010030A
:1009C000A370E37843F03003E370BAF1000F03D172
:1009D000DBB243F00303E3703649129BCDF800B05D
:1009E0006A01013B885A01EB020C63F30E10885236
:1009F0000E9BCCF808300F9BCCF804309DF84C10BF
:100A00009CF80330012E61F383038CF8033042D14C
:100A10001323CCF80C309CE80F000CF1100E8EE87C
:100A20000F00DCF81C20CCF814706FF0030161F3A8
:100A30009F02B9F1010FCCF81C2004D10F9BCCF818
:100A40001830CCF804701A492A018B1841F802803A
:100A50000027159A5A6028469F605E7322466946B1
:100A600002F00CF8384605B0BDE8F08F00212046B2
:100A700007F058FE1023A3700323E370BAF1000FB0
:100A8000AAD1DBB243F03003A5E70B48EBE70B48F4
:100A9000E9E70B48E7E7B8F1000FD4D19CF8023042
:100AA00068F304138CF80230CDE700BF801E0020ED
:100AB000001D0020801D0020028000F0018000F059
:100AC000078000F038B5104B1B780546BBB1C0B1AC
:100AD00001F071FC0D49002301EB0312147B3CB9BA
:100AE0002B6001231373146001F069FC204638BDAC
:100AF0000133082BF0D101F062FC0548F7E7054807
:100B0000F5E70548F3E700BF801E0020001D002028
:100B1000048000F0028000F0018000F013B5164B55
:100B20001868019000238DF8043001F044FC134B49
:100B30001C7824B101F043FC114802B010BD012221
:100B40001A7001F03CFC0F4B1C731C7783F82C408F
:100B500083F83C4083F84C4083F85C4083F86C4059
:100B600083F87C4004230DEB03008DF8073001F07F
:100B700059FF2046E1E700BF16A40000801E0020B8
:100B8000038000F0001D002010B588B00E9C079473
:100B90000D9C06949DF8304005940B9C04949DF8A0
:100BA000284003940024CDE9013400920B4602460C
:100BB00001212046FFF7C6FE08B010BD08B50A4B5C
:100BC0001B785BB107280BD8084B03EB00131B7B8A
:100BD00043B1002101F01CFF002008BD0448FCE7E0
:100BE0000448FAE70448F8E7801E0020001D0020B2
:100BF000028000F0018000F0078000F008B50A4B89
:100C00001B785BB107280BD8084B03EB00131B7B49
:100C100043B1012101F0FCFE002008BD0448FCE7BF
:100C20000448FAE70448F8E7801E0020001D002071
:100C3000028000F0018000F0078000F00D4B1B786F
:100C400093B1072812D889B10B4B03EB00131B7B20
:100C500073B10A4B1A6A012303FA00F010401ABF5D
:100C600000200B70087070470548704705487047B2
:100C700005487047801E0020001D002000200E4007
:100C8000028000F0018000F0078000F02DE9F843B9
:100C9000174E326EF36E12EA030800D5FEE7154CCC
:100CA000DFF854900127002518EA070F16D02368B3
:100CB000B7669BB1A16862680131A1602846984778
:100CC000637B012B0AD148B909EB4513197B1A7FC5
:100CD00060F3410160F3410219731A770135082D61
:100CE0004FEA470704F11004DED1BDE8F88300BFE6
:100CF00000200E40001D0020801D002070B5094E10
:100D00000446012504B970BD94FAA4F0B0FA80F04D
:100D100005FA00F324EA030456F82030002BF1D042
:100D20009847EFE7841E0020054B4FF40032C3F8CC
:100D300080211A604FF40072C3F880211A60704756
:100D400000E100E038B504460D4601F034FB034BEA
:100D500043F82450BDE8384001F031BB841E002028
:100D6000074BD3F82804D3F81C24104020F42A5051
:100D700020F02A004004400CC3F82404FFF7BEBF53
:100D800000A00040074BD3F82804D3F81C241040DF
:100D900020F4AA4020F055000004000CC3F82404FD
:100DA000FFF7ACBF00A000402DE9F84F284C4FF0F2
:100DB000000A04F1A00580464FF000094FF0010B36
:100DC000237F84F81DA06BB1D4E90023994508BFA7
:100DD0009045104619460AD2B2EB080063EB0901B0
:100DE000C4E900012834AC42EAD1BDE8F88FE37FC2
:100DF00033B92377A369002BF4D084F81DB0F1E751
:100E0000D4E90267B8EB000069EB010132463B46CA
:100E100007F05CFAB01A67EB030123696269002BE3
:100E2000C4E900010BDD1344F32B6361E2D9461CD6
:100E300041F10007F43BC4E900676361DAE7D31AC4
:100E4000F32B6361D6D910F1FF3641F1FF37F1E79B
:100E5000D01E002038B5074C0025637F1BB1A36965
:100E6000216A284698470135042D04F12804F4D15D
:100E700038BD00BFD01E0020F0B5194E00214FF044
:100E8000FF324FF0FF337418257F3DB1D4E90045A0
:100E90009D4208BF94423CBF22462B462831A029E0
:100EA000F1D1104900240C705C1C08BFB2F1FF3F67
:100EB0000C4614D000279F420B496FF0640608BF10
:100EC0009642086038BF32460849042502440D6244
:100ED00001234A6523704B6A43F004034B62F0BD63
:100EE000D01E0020CC1E0020C81E00200020044080
:100EF0002DE9F0471E4C01F05EFA656AA2691540C3
:100F000025F0050222626A07804622D5194EA7689D
:100F1000DFF86890DFF868A001223270636A23F07E
:100F200004036362D9F80000381AFFF73DFFFFF7AA
:100F300091FF3846FFF7A0FFD9F80020A768636D3E
:100F4000B91A9B1A9AF800200AB19942E6D80023F0
:100F50003370EB0706D5064B01221A62064A136866
:100F6000013313604046BDE8F04701F028BA00BFE6
:100F700000200440C41E0020701F0020C81E002056
:100F8000CC1E00202E49F0B500220B682D4D1046D6
:100F900054592CB11E68AC18002E3AD123460120BA
:100FA0000832302AF4D100B10B600968264B0A6878
:100FB000002A35D0DA6922F0FF02DA61D8690A79AD
:100FC0000243DA611A6B42F0804220491A63204DD5
:100FD0000B6800221046545924B11E68AC181EBB81
:100FE000234601200832302AF5D100B10B60096890
:100FF000154B0A68FAB1DA6922F47F42DA61DA69DC
:10100000097942EA0122DA611A6B42F000421A635E
:10101000F0BD1E792779B74284BF23460120BFE780
:101020001A6B22F08042D0E71E792779B7423CBF85
:1010300023460120D6E71A6B22F00042E7E700BF03
:10104000781F0020801F002000300E407C1F0020F1
:10105000B01F0020074B186AC0B26FF00403C00035
:1010600090FBF3F0044B1B68184400F3070040B2F8
:10107000704700BF00300E40741F002010B5144CA4
:10108000226B616A0A4010D5124B1B681A682AB19C
:10109000002119605960FFF7DDFF90474FF00043D2
:1010A000E362BDE81040FFF76DBF5300F9D50A4B6E
:1010B0001B681A6832B1002119605960FFF7CAFF36
:1010C00001219047024B4FF08042DA62E9E700BF0E
:1010D00000300E407C1F0020781F0020FFF7CEBF9D
:1010E00038B141B1013AB2F5006F044838BF002071
:1010F0007047034870470148704700BF037000F015
:10110000027000F00D490E4A0B7810B54BB9C2E9D8
:101110000033C2E9023301240C7042F8230000209E
:1011200010BD002352F823100029F6D08142F4D0DC
:101130000133042BF6D10348F2E700BFF01F002073
:10114000E01F0020027000F038B504460D4601F0A3
:1011500032F9A28892B222B92A6001F030F9064829
:1011600038BD6388142202FB034308332B6001F06F
:1011700026F90020F4E700BF0B7000F038B50446F4
:101180000D4601F018F9A3889BB223B92B6001F03A
:1011900016F90C4838BD6388E188142202FB03432A
:1011A00008332B6063885A1C92FBF1F301FB132375
:1011B0009BB26380A388013B9BB2A38001F0FFF840
:1011C0000020E7E70B7000F07FB5012380F82C309A
:1011D00090F8323093B90C4A0368039200220490CD
:1011E00002924A680192012200920A6801698068AD
:1011F0001C33FFF7C9FC07B05DF804FB012BEAD0F4
:10120000002380F82C30F6E7CD160000427E302314
:101210005343044A1A44437F03EBC2039B001868FC
:10122000C0B270471CA0104213B51D4A002352F8EB
:101230002340617F81420ED00133042BF7D102B0ED
:1012400010BD0028FBD19DF80730002BF7D0606857
:10125000FFF7B4FCF3E794F83130022BEFD12046CE
:10126000FFF7D4FF637D2075022BE8D194F82E3070
:1012700003F0FF02002BE2D102A9606801F8012D02
:10128000FFF7DCFC237D1BB194F82F30002BD8D066
:10129000002384F82F306068FFF7B0FCCFE700BF71
:1012A000E01F002090F8323053B903680122DA6061
:1012B0001A69D007FCD55A6F42F001025A6770478D
:1012C000012B0CD103685A6C9107FCD401225A609F
:1012D0009A68D207FCD55A6D42F001025A657047F0
:1012E00090F832303BB903685A6F22F001025A6716
:1012F0000222DA607047012B09D103685A6C920709
:10130000FCD45A6D22F001025A6502225A607047DD
:1013100010B50446FFF702FC0021201DFFF7D2FBA9
:10132000014608B1044810BD04F10800FFF7CAFBEC
:101330000028F8D0F6E700BF0E7000F0F8B50446BC
:1013400017460D4601F037F8A388E2889A42064610
:1013500005D800233B6001F032F81648F8BD238819
:10136000142202FB0343083305F1100C2A4603CA7A
:10137000624518605960154603F10803F6D11068FC
:1013800018602388E188142202FB034308333B6082
:1013900023885A1C92FBF1F301FB13239BB2238099
:1013A000A38801339BB23046A38001F008F80020E7
:1013B000D4E700BF0A7000F073B504460D46C07D47
:1013C000E67E002934D001230422314601F0DEFA02
:1013D00001230222217F207E01F0D8FA94F83130D7
:1013E000022B16D100230122617F607E01F0CEFA2C
:1013F00000230422A07EA17F01F0C8FA0123627FAE
:10140000607E01930093114601F074FA002002B04F
:1014100070BD032BFAD100230122617F607E01F0B1
:10142000B5FA00230422A17FA07E01F0AFFAEDE718
:101430000B460A46314601F0A9FA2B462A46217F7F
:10144000207E01F0A3FA94F83130022B10D12B4604
:101450002A46617F607E01F099FA2B462A46A07EDB
:10146000A17F01F093FA627F607E01950123C9E7B5
:10147000032BCBD12B462A46617F607E01F086FA92
:101480002B462A46CFE72DE9F04104460E46174683
:10149000FFF726FE804650BB082000F0A1FF05465E
:1014A000A26A93889BB213B194F82E3013B394F8C8
:1014B000322022BB23681D6915F0020533D00123B9
:1014C00084F83030002A3FD13744BE42206836D1FC
:1014D00003699E06FCD555B994F83230002B42D1F1
:1014E00023685A6F22F002025A670822DA604046E7
:1014F000BDE8F081002DD4D0FFF7C8FBD0E7012A6A
:101500001BD123689D6815F00205D8D1596C880756
:10151000FCD40421596099688907FCD5596D41F0C4
:1015200002015965CBE70421D96019698907FCD507
:10153000596F41F002015967C1E70025BFE716F86E
:10154000011B01F01EFCC0E7012AD0D13744B7428D
:10155000206803D183681907FCD5BCE716F8011B86
:1015600001F0E5FAF3E7012BC1D123685A6C920729
:10157000FCD45A6D22F002025A6508225A60B6E77E
:1015800010B50446B0B190F82E3033B990F8313030
:10159000022B0AD06068FFF711FB94F82E3001335C
:1015A000DBB284F82E30002010BDFFF72FFE00289C
:1015B000F3D1EFE70048F7E7027000F010B50446FA
:1015C000D0B190F82E30CBB190F82E30012B06D14F
:1015D00090F83130022B0AD06068FFF70FFB94F8C7
:1015E0002E30013BDBB284F82E30002010BDFFF717
:1015F0000DFE0028F3D1EFE70148F7E70148F5E7D2
:10160000027000F0057000F037B590F83150022DEF
:10161000044618D1A37F407D01229A40A37E302149
:101620005943134B0B4410B903F1806303E00128C5
:1016300005D103F1C0631A60002003B030BD217DE5
:101640000029F6D1F0E7012DF6D1037D73B91123FE
:101650008DF80730FFF794FF2A460DF10701204669
:10166000FFF711FF2046FFF7A9FFE5E71323EFE798
:101670000CA00040F0B587B004461646FFF730FDD9
:101680000546F0B9CDE9011604936A460E4B606A2F
:10169000039601A90593FFF751FE054688B994F812
:1016A0002C3073B92046FFF7FDFD00992046FFF767
:1016B0008BFD94F83130032B03D025752046FFF7BE
:1016C000A3FF284607B0F0BD017000F073B5506A63
:1016D00001A91446FFF738FD334B98422FD094F8F8
:1016E0003200019B00282DD12268116C11F4007189
:1016F00036D02E49196198604FF40073936400F05E
:101700005AFE0199CD68064635B14A688B68204675
:10171000D31A0A680969A84701A9606AFFF72EFD74
:10172000606A8588ADB2002D2FD001A9FFF70CFDAE
:1017300001992046FFF748FD304600F040FE0120A9
:1017400002B070BD01281CD12268D16A11F080015D
:101750000FD0164919610021996080235363CEE7A9
:10176000106CC5050DD51248186199604FF480734F
:10177000C4E7D06A400604D50D481861996040233B
:10178000ECE700221A619A60B9E70123237520462D
:10179000FFF73AFF94F8313084F82C50032BCBD06C
:1017A0002046FFF79DFDC7E70B7000F00D7000F0BD
:1017B0000C7000F02DE9F041094F04460D460FCFA3
:1017C00088B001AE0FC697E8070086E80700002C36
:1017D00000F03A8245B9034E304608B0BDE8F081CA
:1017E0002CA40000037000F034220021204606F0F3
:1017F00099FF2046FFF786FC06460028ECD12B7C9B
:1018000084F83130C94A2B682360934284F832004F
:1018100040F08181C64B2362C64BE3604FF4402306
:101820002361D5E9062300266262168056809680E1
:1018300084F82C60A3621E805E809E806B68039398
:101840006B89ADF81430AB89ADF81230AB7B8DF8F5
:1018500010300121EB7BB84884F82D6084F82F60AC
:1018600005278DF816308DF8117000F089FA0121E6
:10187000B24800F085FA0121206A00F081FA01A93E
:1018800028688DF8046001F0FDF9D5F800C0032048
:10189000CCF87400DCF878106A7A2B7A21F4F851CD
:1018A00021F01F01114341EA0321CCF8781021688F
:1018B000DFF878C2614540F04981BB4216D9991FD3
:1018C000042940F25F81A3F10B01B94240F25C812F
:1018D000A3F11101062940F25981A3F1180106294B
:1018E00040F256811F2B14BFFF263E46042AE675A0
:1018F00040F25081511F042940F24E81A2F10A01A9
:10190000052940F24B81A2F11001062940F24881DD
:10191000A2F11701072940F245811F2A14BFFF21B8
:1019200000212176002B58D0012B56D0022B54D009
:10193000032B52D0042B50D0052B4ED0062B00F099
:101940003B81072B00F03A81082B00F03981092BED
:1019500000F038810A2B00F037810B2B00F0428118
:101960000C2B00F021810D2B00F020810E2B00F0BC
:101970001F810F2B00F01E81102B00F01D81112BF9
:1019800000F01681122B00F01581132B00F014814A
:10199000142B00F01381152B00F01281162B00F090
:1019A0001181172B00F01081182B00F00F81192BDB
:1019B00000F00E811A2B00F00D811B2B00F00C8122
:1019C0001C2B00F00B811D2B00F00A811E2B00F058
:1019D00009811F2B0CBF0723FF23E376002A00F0A9
:1019E0001581012A00F01481022A00F01381032AD4
:1019F00000F01281042A00F01181052A00F0FA801B
:101A0000062A00F0F980072A00F0F880082A00F082
:101A1000F780092A00F0F6800A2A00F001810B2ADB
:101A200000F000810C2A00F0DF800D2A00F0DE803B
:101A30000E2A00F0DD800F2A00F0DC80102A00F072
:101A4000D580112A00F0D480122A00F0D380132A06
:101A500000F0D280142A00F0D180152A00F0D08046
:101A6000162A00F0CF80172A00F0CE80182A00F046
:101A7000CD80192A00F0CC801A2A00F0CB801B2AD6
:101A800000F0CA801C2A00F0C9801D2A00F0C8801E
:101A90001E2A00F0C7801F2A14BFFF2300232377CC
:101AA0006B7C6376AB7C6377EB7CA3762B7DA37733
:101AB00001212046FFF780FC064600287FF48CAE0B
:101AC00000F079FC2F7C032F804640F0AD802B681E
:101AD0005A6F42F030025A675A6E42F004025A6658
:101AE0002A8CDA6728684FF0FF3383642B7C032B42
:101AF0000CBF0521042101F09BF82B684FF44062D4
:101B0000DA60FFF70BF82046FFF702FC0646404676
:101B100000F055FC60E60A4A93427FF45CAE094B44
:101B20002362094BE3604FF4502379E60000014043
:101B30000022040001000C004041050000250A00BD
:101B4000000401400032040001000D00DFF804C170
:101B500061457FF440AE052B7FF6C8AE991F04297E
:101B600010D9A3F10B0105290ED9A3F11101062902
:101B70000CD9A3F1180106290AD91F2B14BFFF267F
:101B80000526B3E60126B1E60226AFE60646ADE637
:101B90003E46ABE60021C4E60121C2E60221C0E6D2
:101BA0000321BEE60521BCE6072316E7082314E758
:101BB000092312E70A2310E70B230EE70C230CE797
:101BC0000D230AE70E2308E70F2306E7002304E7A7
:101BD000012302E7022300E70323FEE60423FCE6D9
:101BE0000523FAE60623F8E6082358E7092356E713
:101BF0000A2354E70B2352E70C2350E70D234EE74B
:101C00000E234CE70F234AE7002348E7012346E76A
:101C1000022344E7032342E7042340E705233EE78A
:101C200006233CE707233AE7022F7FF45BAFFFF779
:101C30007BF8607F0549FFF785F8A67526756775FF
:101C40002046FFF7E1FC4DE7014EC5E529120000F3
:101C5000027000F000040140044BDA68D20604D59B
:101C600010225A61024B01221A7070470080014015
:101C7000F11F00200C4B984210D90C4B984210D900
:101C8000022201230A490B600A49D1F8003123F0EE
:101C9000807343EA0263C1F80031704700221346A3
:101CA000F0E70122FBE700BF0048E8010090D00305
:101CB0004000C84300400E400A490B4B88425A6816
:101CC0000BD90A4988420AD902F040715A6822F0B9
:101CD000407242EA01625A6070470021F6E7012132
:101CE000F4E700BF40787D0100000E40005A620218
:101CF00038B5064C41F67133256C236401F046F883
:101D0000FFF7DAFF0DB10023236438BD00000E4059
:101D1000044BD3F84421D20703D4D3F84021104216
:101D2000FBD1704700400E400C4AD2F89030516A07
:101D30000B4B21F0300141F0100110B55162146BD2
:101D4000C0F3C31103310F2903EA040328BF0F2195
:101D5000034343EA0173136310BD00BF00400E400C
:101D600000F8FF0F38B5054C41F67133256C23643C
:101D7000FFF7A2FF0DB10023236438BD00000E4021
:101D8000C0F30322013A38B50546092A13D8DFE823
:101D900002F023131212051619121C20104C0020F9
:101DA000C5F3043508B1FFF7B3FF04F1047405EB84
:101DB000C404A400216038BD00200A4CF0E70120D3
:101DC000094CEDE71020094CEAE74FF48030084C4D
:101DD000E6E70020074CE3E70020074CE0E700BF00
:101DE000B0400E40C0400E40E0400E40E8400E4083
:101DF000F0400E4050410E4000400E4000F00F00F9
:101E00000138072848D8DFE800F0040F1947232DD0
:101E10004735244BD3F8943003F00703023B022BE1
:101E20003CD8214AD05C70471E4BD3F8803003F079
:101E30000703013B032B33D81C4AF3E7194BD3F8B4
:101E4000843003F00703013B032B29D8184AE9E744
:101E5000144BD3F8883003F00703013B032B1FD842
:101E6000144ADFE70F4B1B6F13F0010F14BF09205B
:101E7000072070470B4BD3F85C3103F03003202B65
:101E800006D0302B06D0102B0CBF07200120704746
:101E900004207047082070470020704705207047D5
:101EA0000120704700400E4048A400004BA40000F1
:101EB0004FA400004BA4000008B50146FFF79EFFA9
:101EC0001B4B994211D01B4B994212D01A4B99428D
:101ED00004D11A4BD3F8800000F007000138032822
:101EE00024D8DFE800F00A0E1612144BD3F8840051
:101EF000F2E7124BD3F88800EEE7BDE8084000F0A7
:101F0000B7BFBDE8084000F0B9BFBDE8084000F029
:101F1000B2BF00F063FF094BD3F80031C3F3006395
:101F20005A1C01239340B0FBF3F008BD0020FCE7EE
:101F300003001E000500220002001C0000400E40AD
:101F400000F47810B0F5801F08B577D016D8B0F53A
:101F5000802F2DD005D868B1B0F5003F33D00020D8
:101F600008BDB0F5402F34D0B0F5602F52D0B0F599
:101F7000202FF4D1BDE8084000F00CBFB0F5E01F01
:101F80002FD00AD8B0F5B01F30D0B0F5C01F38D070
:101F9000B0F5A01FE3D1304824E0B0F5081FFAD017
:101FA000B0F5401F3DD0B0F5F01FD8D12B4819E057
:101FB00000F0F0FE2A4BD3F80C31C3F308230133B1
:101FC000B0FBF3F0CCE700F0E5FE254BD3F8083189
:101FD000F3E700F0DFFE224BD3F81431C3F3042300
:101FE000EDE72048BDE80840FFF766BF1D48FFF752
:101FF00063FF1B4BD3F8202102F00F020123934013
:10200000DEE71648FFF758FF154BD3F8282102F0FA
:102010000302F3E71448FFF7F1FE07280ED0092862
:10202000A7E71248FFF7EAFE072807D0082808D0DC
:10203000042894D1BDE8084000F0E2BE0C4B1868BB
:102040008EE700F0A7FE064BD3F80031C3F304235C
:1020500003FB000084E700BF0500220003001E0010
:1020600000400E4002001C0006000E00B8003000C8
:10207000400100200E4B5A6A12F0300F04D0202984
:1020800013D0302900D011B94FF4400200E0094AC2
:10209000D3F8901032EA0101FAD1520246BFD3F8C8
:1020A000A000C0F38020012070474FF40002EFE74A
:1020B00000400E40FF03E10702280AD129B1064B78
:1020C0004FF48060C3F8A800596612B10220FFF7F0
:1020D000D1BF0120704700BF00400E40F8B5042872
:1020E0004ED8DFE800F00A03116166008026402523
:1020F0000623072400294ED046E04FF400764FF423
:10210000807508230924F5E7002942D02B4C636A27
:1021100013F0300F35D1636ADB0705D5636A23F00E
:10212000300343F010036362042502230324234E8B
:102130003566234E33449B001F68002FFCD0FAB154
:102140003444A4002368002BFCD0022818D1B9B174
:102150001A4E716A11F0010118D001222021FFF7F7
:10216000ABFFD6F89C70012200210220FFF7B6FFDA
:10217000C7F30A00FFF7D8FD35662368002BFCD0B3
:10218000F8BD0425022303240021D0E7FFF772FFE6
:10219000E7E708260223094A1666094A1A4492000C
:1021A0001368002BFCD1EBE70125022600232C4607
:1021B000A0E720261025042305249BE700400E40BD
:1021C0008004F21000F00F00013810B5072842D843
:1021D000DFE800F00F043D413B5B4166494C0139AB
:1021E000092938D8DFE801F04F383F37374637370D
:1021F0003735023903292ED8DFE801F02402181EF2
:102200000120032401221146FFF768FFFFF770FD4C
:102210003D4B3E485C67FFF793FEFFF72BFD00F058
:10222000DDFD0021BDE81040FFF79CBD3848FFF7F9
:1022300021FD02200446E5E73548FFF71BFD012498
:102240000320DFE700200424DCE7324CC7E7324CF0
:10225000C5E70423236010BD012211460020FFF7CB
:102260003DFF0223F6E7012211461046FFF736FF35
:102270000123EFE700F0B2FDFFF7FCFC274B012242
:102280001A600323E6E70023E4E7072904D00929BD
:10229000E1D11D4B012201E01B4B00221A67DAE756
:1022A00001390729D7D801A353F821F0FF220000F4
:1022B0005722000057220000F122000057220000A0
:1022C00057220000E3220000CD22000003220E4925
:1022D000D1F85C3123F0300343EA0213C1F85C31DA
:1022E000B9E7012211460420FFF7F8FE0122EEE7CC
:1022F000012211460220FFF7F1FE0222E7E7002249
:10230000E5E700BF80400E4000400E4000050A0097
:102310000148E80188400E4084400E400016C84342
:1023200010B504461120FFF769FD012200210220AB
:10233000FFF7D4FE1A4A217C536A23F001030229D5
:1023400008BF43F001035362164B21781960936A6A
:10235000E17A23F007030B439362A188637A43EA8F
:10236000C123D362136BA07A217A03F07F63034306
:10237000E08843EAC02343EAC11303310F2928BF91
:102380000F2143EA01731363A37B617B1B0143EAC3
:102390000133E17B0B43217B43EA0143536310BDCF
:1023A00000400E40A004C843EFF3108072B670479F
:1023B00000B962B67047EFF3108072B67047FFF74E
:1023C000F7BF00004109054A00F01F0352F8210041
:1023D000D840C04300F00100704700BF00E100E0BA
:1023E00010B50446EFF31083DB0733D4FFF7EAFFA1
:1023F00000282ED1002CADBF04F1604404F00F047E
:10240000154B04F56144B4BF1A5D94F800235209DA
:10241000EFF3118313B1B2EB531F1BD20F4C636860
:10242000C3F30803ABB1103BDBB259B20029BBBF09
:1024300003F00F03043B01F160431B19AABF03F52E
:102440006143187E93F800034009824234BF0020A4
:10245000012010BD0120FCE714ED00E000ED00E0DC
:102460001848194BC26C1B88C2F30322283301326F
:1024700002EB820103EB5303B3FBF1F3C16C013BAD
:10248000072B21F0EE6128BF072341F4801141EAB8
:102490000363C3640D4BB3F90030002B10DB28330A
:1024A000510801EB420203EB5303B3FBF2F3026D5D
:1024B000072B28BF072322F0700242EA03130365AB
:1024C000704700BF00300E40F41F0020F61F0020B0
:1024D000134B9A6FD207FCD41B6C13F003031EBF7F
:1024E000104A01211160834203D108B90D4B1860D5
:1024F000704723B9012802BF0B4B02221A70084A09
:102500001146936FDB07FCD4136C23F003030343E2
:1025100013648B6FDB07FCD4003018BF0120E5E7A4
:1025200000300E40B40AC643F81F0020A0F5E16356
:10253000B3F5966F2DE9F04703D900210846BDE8B1
:10254000F0875F4C5F4BD4F86851DB6CB0F5E16FFE
:102550001FBF4FEA156AC5F307484FF496694FF459
:10256000E16701BFC5F3072A5FFA85F84FF41679D2
:102570004FF49667B0F5E166C3F3017C18BF0126FE
:1025800046EA0C2E40F201139E455BD0BEF5817FDA
:1025900009D2BEF1010F1BD05DD3BEF5807F5DD0A7
:1025A00000252B4619E040F201239E4550D005D866
:1025B000BEF5007FF4D1D4F870310BE0BEF5407F5A
:1025C0004FD040F201339E45EAD1D4F878313BE058
:1025D000D4F87431C3F30725DBB2C71BAAEB080E8E
:1025E00007FB0EFEBEFBF9FEC644D645A5D8A5EBFB
:1025F000030807FB08F7B7FBF9F73B44AB424FF082
:1026000000079AD882B1DFF8BC80D8F85C5025F476
:10261000FE4525F00205B0F5E16F45EA0E2518BF2D
:1026200002273D43C8F85C50002946D0226DD2B243
:10263000032A19D8B0F5E16FD4F87C211FD0C2F37A
:1026400007221DE0D4F874311D0EC3F30743C4E71D
:10265000D4F87831BEE7D4F86C31BBE7D4F86C31EC
:10266000F2E7D4F87031EFE7BCF1020FD4F8802123
:102670001ED0BCF1030F1ED0BCF1010FDFD0D2B2CF
:10268000120312F4702F7FF458AF0E4CE06E20F45A
:1026900070400243E266626E22F4FF72E72B22F082
:1026A000010228BFE723324342EA4303636645E75A
:1026B000C2F30742E4E7120EE2E701213EE700BF62
:1026C000B081E00F00300E40194B1A6FD96CC9076A
:1026D00002F0070214D5012A12D9132823D914387D
:1026E00013288CBF102308231148013BC26C190327
:1026F00022F47F4241EA03231343C364FFF7B0BED1
:10270000DB6CD90706D4012A04D809280BD90A386A
:102710000928E6E7064BDB6C13F00103E4D0012A3D
:1027200003D82728DDE70423DEE70023DCE700BF2A
:1027300000300E40054A064B1B68136F23F0070359
:102740001843044B10671888FFF7BEBF00300E40D7
:102750008009C643F21F0020534B37B502229A630B
:102760009B6B03F00F039342054603D000242046E1
:1027700003B030BD4D4BD3F86C3101331DD04C4B01
:102780001A68043B1B681A604A4B1A68043B1B68B2
:102790001A60494B1A68043B1B681A60474B1A6859
:1027A000043B1B681A60464B1A68043B1B681A609E
:1027B000444B1A68043B1B681A60E988B5F90C00A1
:1027C0004A2965D9B1F5FA7F64D340F6C31399421B
:1027D00094BF4FF000514FF04051334CE36C23F065
:1027E000405323F001030028A8BF43F001030B432B
:1027F000E364E36E43F08073E366334B186800B123
:102800000420FFF797FF236E23F0C0432366E36C99
:1028100043F0060301A8E36400F0ACF99DF805005D
:10282000012812D19DF80430022B0ED827490B78CD
:102830005BB9274A136843F001031360236E254AEE
:102840001A40254B134323660870244B29891980AD
:10285000234BB5F90C201A80224BA8881880FFF76B
:1028600033FFAB7BCBB1012B1BD001221146688813
:10287000FFF75CFE044600283FF478AFAB7A1A4AB3
:102880006878003318BF01231360FFF721FE6EE75D
:102890000021A2E74FF080519FE7034B134A9A654E
:1028A000E3E7014B124AFAE700300E40B081E00F37
:1028B0003C80E00F4480E00F4C80E00F5480E00F3C
:1028C0005C80E00F6480E00F8009C643F81F0020A1
:1028D00044300E40000F0EF0B4C0400BF41F002037
:1028E000F61F0020F21F00209407C64377402057B0
:1028F000372110B7072A70B501F003014FF00F051B
:1029000023D896001A4CB540256004F10074B040FD
:1029100020600320B04001FA06F61649086001F174
:1029200000710E601449114489000B609DF810304D
:10293000C1F88030012303FA02F2104BC3F82424BB
:102940009DF81430C1F8003370BDA2F10804A40052
:102950000B4EA54035600B4DA04028600320A040E1
:1029600001FA04F40849086001F100710C60D9E72C
:1029700000A4004408A400448020851000A000406A
:1029800004A4004404A400460CA40044F0B54AB1D9
:1029900030261E4C012546438D4034440BB304F1D0
:1029A000C06425603024444304F18044072904F5C1
:1029B000204419D865688E000F27B74025EA07051F
:1029C00002FA06F63543656052B9012202FA01F1B6
:1029D000302250430D4A0244A3B102F1C06211609B
:1029E000F0BD04F18064DCE701F18045083DA66894
:1029F000AD000F27AF4026EA070602FA05F535437A
:102A0000A560E1E702F18062E9E700BF0CA00040A9
:102A1000034B03449B0081F001011960704700BF24
:102A2000A001F11010B5044601211148FFF7A8F9E3
:102A3000637822781B0243EA0263A27813430D4AAB
:102A4000136000231362D36253634FF00043D366D5
:102A50004FF0FF339366084A4FF48071C2F880113B
:102A6000E3785B01DBB282F80833116010BD00BF70
:102A700000450A0000200E4000E100E02DE9F04191
:102A8000C3B2254D91F80AC00F7B01260C469E402B
:102A90004FF03008CB7A497B08FB00504FEA035EC9
:102AA0002368C0F880304EEA0C4343EA475322F0D3
:102AB0000302C0F88810C0F88430C0F89820AE66D1
:102AC000FFF779FCEB6E3343EB66237A13B16B6B44
:102AD00033436B63637A13B1EB6A3343EB6222795E
:102AE0002B6822B1D243120262F47F421340627912
:102AF0000AB143EA0223A2790AB123EA0203E27986
:102B000002B11343044A1360044B1E60D663BDE850
:102B1000F041FFF754BC00BF00200E4028200E44B7
:102B2000036CDB0702D4436C0B42FCD1704710B539
:102B300002460C469368DB06FCD540211046FFF7A1
:102B4000EFFF946210BD0000044B41F671321A642D
:102B50009A6822F001029A60704700BF00000E40A0
:102B6000034B9A6822F001029A6000221A647047AF
:102B700000000E400B4A536911699B0003F03C03AF
:102B8000C1F381110B438370136903F03F0343705A
:102B90009369D26903F0F003C2F303121343037085
:102BA000704700BFD0FF0FE070B5054616461C46C3
:102BB00019B91448FFF7C4F90146202C08D001D8F0
:102BC000ECB170BD402C18D0602CFAD1042200E08A
:102BD000082206FB02F35A0802EB4112B2FBF3F2A1
:102BE000094B203A03EAC2022B6823F060032B60F2
:102BF0002B681C432C606A61E3E70622E9E7102298
:102C0000E7E700BF40410500F8FF7F0038B5054603
:102C1000144619B90548FFF793F9014601396400D4
:102C2000B1FBF4F10902696138BD00BF4041050004
:102C3000CB435B0003F00A03C360C1607047000030
:102C400040F6AA63C36041F20502002303604260BC
:102C50000A4A83604361C3648264094A43679042BD
:102C6000836702F58062C36701D0904200D103659B
:102C70009042836508BFC365704700BFF9FF01003C
:102C80000000014038B505460C46FFF7D9FF8B7CA4
:102C90001BB1036843F080430360E37C1BB1237DD9
:102CA00043F08003AB65228A637B1343E2891343BD
:102CB0006B60D4E90112237B2846FFF775FF637D23
:102CC0001BB12B6843F480332B60A37DE27D1B078F
:102CD000120502F4E00203F0E04313432B666B6F2E
:102CE00023F030036B676A6F237E13436B6723788F
:102CF000EB6038BD38B50C460546FFF7A1FF0A8AE0
:102D0000897B0368002942F0010214BF4FF48061FF
:102D1000002113430B43227D03600368002A14BF84
:102D20004FF00052002213430360A37C1BB1E37CED
:102D300043F080038365237B43F480536B60D4E9C5
:102D400001122846FFF762FF637B0BB11023EB6093
:102D5000637D1BB12B6843F480332B60A37DE27D40
:102D60001B07120503F0E04302F4E00213432B6655
:102D70002378EB6038BD03691B06FCD5C069C0B27F
:102D8000704703695B06FCD5416370470048704794
:102D900000F049020D4AD2F8943003F00703032BE8
:102DA00011D0042B03D0022B0BD1094B00E0094BAF
:102DB0001868D2F80031C3F304230133B0FBF3F0F9
:102DC0007047054BF4E74FF40040F2E700400E4037
:102DD00048010020500100204C01002008B5FFF7F9
:102DE000D9FF054BD3F80831C3F308230133B0FBF7
:102DF000F3F0024B186008BD00400E404401002073
:102E0000014B1868704700BF48010020054B18604F
:102E1000054BD3F8943003F00703022B01D1FFF7E1
:102E2000DDBF70474801002000400E400D4AD2F837
:102E3000883043F47003C2F888300B4B5A6D42F46B
:102E400000525A651A6C22F003021A64074A13688A
:102E500023F00103136052F8143C23F0805342F82E
:102E6000143C704700ED00E000300E4074300E401E
:102E70004FF4004070474FF47A707047014B186868
:102E8000704700BF500100207FB5094B6A4603F12F
:102E90001006154618685968144603C40833B3422F
:102EA0002246F7D12846FFF757FC04B070BD00BF9B
:102EB00054A4000070B51A4B86B001AA03F11006A5
:102EC000154618685968144603C40833B3422246AD
:102ED000F7D11B88238028464FF096130293FFF703
:102EE0001FFA1048FFF792FF012211460220FFF758
:102EF000F5F804211120FFF765F90022114603209F
:102F0000FFF7ECF803210848FFF75CF903210748B5
:102F1000FFF758F903210648FFF754F906B070BDD2
:102F200064A4000000F0490202001C0003001E001F
:102F30000500220013B51C4BDC6C01A8240EFFF722
:102F400019FE8E2C1CD81949D1F8B00040F00403AA
:102F5000C1F8B030164B4FF050121A601A631A665F
:102F6000C3F89020C3F8C020C3F8F020C1F8B00027
:102F70000E4AD36A23F07F0343F02003D36201E0BB
:102F80008F2CF5D99DF80530012B01BF094A136834
:102F900043F004031360084B00221A60FFF774FF2C
:102FA000FFF788FF02B010BDB081E00F00400E4077
:102FB00000A0004064310E40B40AC64308B50121A8
:102FC0000448FEF7DDFE00F009F8BDE8084000F017
:102FD0008DB900BF00250A000020704708B5012107
:102FE0000D48FEF7CDFE01210C48FEF7C9FE042274
:102FF000114600230520FFF7C9FC052108460023E0
:103000000422FFF7C3FC0023042206210520FFF75A
:10301000BDFC002008BD00BF4041050000250A009E
:1030200002280DD8084B03EBC00213F8303051686A
:1030300001228A4030215943044B00205A507047E6
:103040004FF0FF30704700BF78A400000CA0004490
:1030500002280DD8084B03EBC00213F8303051683A
:1030600001228A4030215943044B00205A507047B6
:103070004FF0FF30704700BF78A400000CA000465E
:1030800008B500F013F808BD82B000EB4000002145
:10309000CDE90001DDE9002312F1FF3043F1FF31FA
:1030A0001343CDE90001F5D102B070472DE9F0419D
:1030B0008AB0FFF73FFFFFF781FF14220DEB0200FC
:1030C000002105F02FFB474B06930D238DF81E3092
:1030D00005230124022607278DF8223005A90C2399
:1030E0004FF0FF308DF814608DF81C708DF81D4086
:1030F0008DF823408DF8243001F0B8FC3A4B0FCB0B
:1031000001AD85E80F00284600F0B2F9374B38488A
:10311000D3F8903003F48073002B0CBFA0464FF01F
:103120000008214614BF35460325FEF729FE224636
:1031300021464046FEF7D2FF29462E48FFF742F8C7
:1031400029462D48FFF73EF829462C482C4DFFF71D
:1031500039F821462B48FEF713FE21462A48FEF790
:103160000FFE28462949FFF7C5FD0B236B6703F1C6
:103170000B23AB673046002304220621FFF706FC31
:103180003246394630460023FFF700FC3046002324
:1031900004220821FFF7FAFB0422234611461C4FA4
:1031A0001C4E0020FFF7F2FB102442F21070FFF7D4
:1031B0006BFFAB2128463C60FFF7E3FD2846FFF795
:1031C000DAFD34601E20FFF75FFFB92128463C601E
:1031D000FFF7D7FD2846FFF7CEFD34600AB0BDE803
:1031E000F08100BF006A180090A4000000400E406B
:1031F00000050A0002001C0003001E00050022005A
:1032000000040140404105000032040040A50000D8
:103210000CA000440CA0004600207047FEE74FF4CD
:1032200000534B6000207047012070470120704719
:103230004FF0FF30704700207047F8B50E468F18EA
:103240000D46BD42A5EB060405D1002C08BF4FF08A
:10325000FF342046F8BD00F0ABF8431CF5D005F86C
:10326000010BEEE7044B1968024609B903491960DE
:10327000186802441A607047FC1F0020582A00207A
:1032800070B50E4615460C46A31B9D4201DC284630
:1032900070BD14F8010B00F0BDF8F5E70F480369A5
:1032A0001B0670B514D50E4D2B68072B11DC0D4C89
:1032B0002668FFF760FD0C4B9855236801332360A7
:1032C0002B6801332B602368082B01D10023236076
:1032D00070BDC36C23F00403C364F9E70000014030
:1032E0000C200020142000200220002030B50121F5
:1032F00089B02748274DFEF743FD01212648FEF7F8
:103300003FFD0123042202210020FFF73FFB0023A1
:10331000012211461846FFF739FB0FCD01AC0FC44F
:1033200095E8070084E8070001211C481C4CFEF7C3
:1033300027FD08A9002501F81C5D2046FFF7A2FC27
:1033400003236367A26F22F4F85222F01F0242F4B3
:1033500000720423A267A364124B4FF40061C3F808
:103360008011E26C42F00402E264204619600521FB
:10337000FFF75EFC0C4B186802222B46294680683A
:1033800005F0E6FD094B01221A7009B030BD00BFFF
:103390004041050058A5000000250A000022040055
:1033A0000000014000E100E0BC03002001200020FB
:1033B000134B1B7810B50BB9FFF798FFFEF7FBFF17
:1033C000104B1A68002A18DD0F4A104C1168645C13
:1033D0001168013111601168082904BF00211160D2
:1033E0001A68013A1A600A4AD36C43F00403E4B243
:1033F000D364FEF7E4FF204610BD4FF0FF34F8E73A
:10340000012000200C20002010200020022000209D
:103410000000014038B50E4B1B7804460BB9FFF78E
:1034200065FF0C4D2A782AB10A2C03D10D210A48D8
:10343000FFF7A7FC21460848FFF7A3FC2B782BB128
:103440000D2C03D10A210448FFF79BFC204638BD10
:1034500001200020002000200000014010B9024B94
:1034600018687047014BFBE71C2000202420002037
:10347000064B027B1A70064B02681A60054B4268C5
:103480001A60054B82681A600020704718200020DF
:103490001C200020242000202020002047F6FF735D
:1034A0009A4270B50D46144658D02D4B1B682BB16F
:1034B0002C4B1B6813B12C4B1B6813B92A2101F04C
:1034C000BDFA2846FFF7CAFF012D0ED1264B196819
:1034D000062331F91320A24218B202DC0130C0B237
:1034E00070BD013BF5D11846F8E7B0F90010A142D4
:1034F00003DB1E49A142B8BF21462822A1F1C8031F
:1035000093FBF2F31A4A446815785B421BB29D4262
:10351000DCBF05F1FF331BB24FF47A7604EBC30234
:103520000133508852681BB211FB002020EAE07082
:103530009D4200F5FA70B0FBF6F203DD34F833007B
:103540009042EBD203F10053013B34F83300904238
:1035500028BF1046002808BF0120C0E7FF20BFE7B2
:103560001C2000202420002020200020C880FFFFF5
:1035700018200020284B1B6870B50D4614462BB14F
:10358000264B1B6813B1264B1B6813B92A2101F087
:1035900055FA012D0BD1072C05D82CB9204B1B68EF
:1035A00033F9140070BD0724601EC4B2F6E78CB373
:1035B0002846FFF753FF012C02D8B0F90200F1E7CB
:1035C000002D14BFF823FC239C4202DBB0F900005D
:1035D000E8E7144B426819780139C9B20023A5B253
:1035E000D8B281424FEAC30004D916180133368994
:1035F000AE42F5D213184FF47A705A68B3F902103C
:103600006043801A022291FBF2F2104490FBF1F029
:1036100000B2C7E70448C5E71C2000202420002092
:1036200020200020182000200CFEFFFF06488047C5
:103630000649074A074B9A42BEBF51F8040B42F8AD
:10364000040BF8E7FCF760FD2D2E000060C10000C0
:103650000000002098070020FEE700BF2DE9F04F92
:1036600085B0CDE90123002480460E468A462746D0
:103670004FF07B0B96B90199404805F0A3FE002C52
:1036800079DA61423E4805F0C3FB029B13B13D4825
:1036900005F046FC204605B0BDE8F08F2C215046D1
:1036A00005F022FD064690B3A0EB0A09334BC7F59F
:1036B000807209F103018A4203EB070555D32A46BC
:1036C0005346002419460134B9F1000F04D008789C
:1036D0000A2803F101031FD082F800B028194A46D6
:1036E00004F0FCFF04EB09035C1C4FF07D0905F8B6
:1036F000039000232B553A21284605F0F5FC82461D
:1037000078B9B8F1000F1FD16FF00B04B3E7504642
:1037100005F001FD8146C9E702F8010B09F1FF3907
:10372000D0E7431C3A211846039305F0DDFCF8B9B5
:10373000B8F1010F039B0DD1AAEB0502A41A224692
:103740001946681C04F0D5FF002C94DB274406F1D1
:10375000010A8FE7B8F1020F01BFAAEB05048AF84E
:1037600000908AF801000134EEE76FF00A0482E766
:103770006FF00C047FE7002487E700BF28200020BB
:103780008BA50000A5A5000010B504467B2005F020
:1037900057FB1CB12146024805F03AFB012010BD41
:1037A000A0A500000EB433B505AB53F8045B01933C
:1037B000FFF7EAFF044630B90024204602B0BDE816
:1037C000304003B070470123019A29460020FFF7DB
:1037D00045FF0028F1D0EFE70CB473B506AB044603
:1037E00053F8046B01937B200D4605F029FB1CB1B7
:1037F00021460D4805F00CFB0C4805F009FB01992A
:10380000304605F0DFFD7D2005F01AFB294608480B
:1038100005F0FEFA074805F083FB012002B0BDE881
:10382000704002B0704700BFA0A5000074A5000062
:103830007CA50000A5A500004FF07E634FF6FF7148
:103840009A8830482DE9F0478A42DFF8EC80DFF8AB
:10385000EC90DFF8ECA02C4F2C4E2D4D2D4C08BFDA
:103860000022A8F800201B7AFF2B08BF012389F84B
:1038700000304FF07E639A79FF2A08BFC8228AF889
:103880000020DB79FF2B08BF10233B704FF07E63D5
:10389000DA7AFF2A08BF012232705B7AFF2B08BF59
:1038A000C8232B704FF07E639B7AFF2B08BF002349
:1038B000237005F035FB4FF07E631748196805F05B
:1038C000A7FAB8F80010154805F0A2FA99F8001008
:1038D000134805F09DFA9AF80010124805F098FA7E
:1038E0003978114805F094FA3178104805F090FACB
:1038F00029780F4805F08CFA21780E48BDE8F0478A
:1039000005F086BAA7A50000D8280020D0280020FE
:10391000D1280020D7280020ABA50000C4A50000B6
:10392000D8A50000EFA5000008A6000021A6000011
:1039300039A6000052A60000D4280020D22800207A
:10394000D628002010B54FF07E64ADF5007D2368C9
:103950000093184B1B88ADF80430174B1B788DF87B
:103960000630164B1B788DF80730154B1B788DF8F9
:103970000830144B1B788DF80930134B1B788DF8E9
:103980000A30124B1B788DF80B30FFF7DDF820461C
:1039900006F0AAFA80226946204606F0A9FA10B17C
:1039A0000B4805F035FAFFF7DBF84FF6FF700DF521
:1039B000007D10BDD4280020D6280020D828002063
:1039C000D2280020D1280020D7280020D02800208D
:1039D0006BA6000030B499B90A4B1C88A4B2651CD0
:1039E000ADB21D801578084A15551A88B2F57A7F50
:1039F00028BF19800122054B054930BCFDF73ABEAE
:103A000030BC70472821002068240020D5390000F0
:103A10002D24002030B499B90A4B1C88A4B2651C2F
:103A2000ADB21D801578084A15551A88B2F57A7F0F
:103A300028BF19800122054B054930BCFDF71ABE8D
:103A400030BC70472821002068240020153A00006F
:103A50002D24002030B50B4D0FCD8BB001AC0FC421
:103A60000FCD0FC42B682360074C01A92068FDF718
:103A7000A1FE064B064920680122FDF7FBFD0BB0B5
:103A800030BD00BF84A6000054010020D5390000DD
:103A90002D24002030B50D4D0FCD8BB001AC0FC4DF
:103AA0000FCD0FC42B682360094C01A92068FDF7D6
:103AB00081FE0146074805F0ABF9074B074920682E
:103AC0000122FDF7D7FD0BB030BD00BFA8A6000056
:103AD00058010020CCA60000153A00002D2400203B
:103AE0001F48204B01881A8892B28A4270B5054659
:103AF0001C4630D00288198891422CD21A881A4963
:103B000092B28A5C692A0A4604D01E8831444978F8
:103B1000BF2921D123889BB2D35C692B1BD1238879
:103B200013445B78BF2B16D1238813449B7893B141
:103B300023881A440D4B92781A802B88511D994284
:103B400009DA053AD2B20A494FF6FF7000F06EFB6F
:103B500000232B80238070BD028892B21A80FAE77E
:103B6000282100202A210020682400202C21002068
:103B700073240020BFF34F8F0549064BCA6802F437
:103B8000E0621343CB60BFF34F8F00BFFDE700BF80
:103B900000ED00E00400FA050B46034A03491288D1
:103BA0001868FFF7FFBD00BFD42800203DA7000024
:103BB00010B548680C46FCF7BDFE031E06DA206807
:103BC000064A1121BDE81040FFF706BE00F04CFC8C
:103BD00021460120BDE81040FFF7DEBFAEA7000080
:103BE0000B4B10B518680C4600F058FEC30706D5FD
:103BF0002068084A1221BDE81040FFF7EDBD064BD2
:103C000020681A780549BDE81040FFF7CBBD00BF1A
:103C1000CC08002008A70000D828002032A7000008
:103C200070B548680C46FCF785FE0C4B054681B222
:103C3000186800F0EDFC38B12B462068084A1121C5
:103C4000BDE87040FFF7C8BD284600F017FC2146CC
:103C50000120BDE87040FFF7C3BF00BFCC080020C3
:103C60007FA700000B4B10B518680C4600F016FE3D
:103C7000C30706D52068084A1221BDE81040FFF7A7
:103C8000ABBD064B20681A780549BDE81040FFF728
:103C900089BD00BFD008002003A70000D72800205E
:103CA0002DA7000070B548680C46FCF743FE0C4B8E
:103CB000054681B2186800F0ABFC38B12B4620688D
:103CC000084A1121BDE87040FFF786BD284600F084
:103CD000EBFB21460120BDE87040FFF7C3BF00BFEA
:103CE000D008002094A7000070B5084C0D6820682B
:103CF00000F023FE0646206800F047FE32460346E9
:103D000003492846BDE87040FFF74CBDCC080020B1
:103D100047A700002DE9F0411A4C4F6826680D4670
:103D20005EB938460C68FCF705FE174A03461121B8
:103D30002046BDE8F041FFF74FBD02281ADD1349C8
:103D4000A86805F0DEF9A8B93846FCF7F3FDC1B262
:103D5000304600F0EFFD206800F0EFFD06462068D9
:103D600000F013FE3246034609492868BDE8F041D9
:103D7000FFF718BD3846FCF7E1FD01B2304600F010
:103D8000F0FDE8E7CC080020C3A70000F5A700007D
:103D900047A7000070B5084C0D68206800F0CDFD05
:103DA0000646206800F0F1FD3246034603492846E6
:103DB000BDE87040FFF7F6BCD008002047A7000020
:103DC0002DE9F0411C4C4F6826680D465EB9384617
:103DD0000C68FCF7AFFD194A034611212046BDE8E7
:103DE000F041FFF7F9BC02281DDD1549A86805F070
:103DF00088F9C0B93846FCF79DFDC1B2304600F0E5
:103E000099FD206800F099FD0646206800F0BDFD90
:103E1000044600F05FFB2346324628680949BDE8A6
:103E2000F041FFF7BFBC3846FCF788FD01B23046D1
:103E300000F097FDE5E700BFD0080020F9A70000DB
:103E4000F5A7000047A700000B46034A0349127874
:103E50001868FFF7A7BC00BFD228002031A80000D7
:103E600038B548680C46FCF765FD0928054601DCB5
:103E700000F03AFB2A4620680249BDE83840FFF7C7
:103E800091BC00BF2DA800000B46034A03491278DD
:103E90001868FFF787BC00BFD028002052A8000098
:103EA00038B548680C46FCF745FD0928054601DC95
:103EB00000F024FB2A4620680249BDE83840FFF79D
:103EC00071BC00BF4EA80000F0B5124B89B001AA2A
:103ED0000D4603F11807164618685968144603C4BE
:103EE0000833BB422246F7D119889B78A3700A4B4E
:103EF000218003221A7000F031FA1B2231464FF65E
:103F0000FF7000F0EDF805492868FFF74BFC09B099
:103F1000F0BD00BFE8A600002E2400205EA7000030
:103F200038B548680C46FCF705FD064B05460222ED
:103F30001A7000F0EDFA2A4620680349BDE83840BF
:103F4000FFF730BC2E24002068A70000014804F0D1
:103F5000E7BF00BF8CA9000070B506460220FFF73E
:103F600077F81A4B18780130FCF738FA0446FCF75A
:103F700057FAB8B12046FCF783FA21461448154D8C
:103F8000FCF7A7FA144B2A781B789A420FD21348F1
:103F9000134B0068012244F6206100F0F1FA2B78FF
:103FA00001332B702046BDE87040FCF751BA0D4B31
:103FB0001B78022BF6D10C4B19680C4B4FF47A701E
:103FC00041430122304600F0DBFAEBE7DC28002019
:103FD0005C2900202F210020D0280020D0080020BC
:103FE000593F00002E24002088030020E5410000F6
:103FF00038B50220FFF72CF8124B18780130FCF787
:10400000EDF90446FCF70CFAB8B12046FCF738FA93
:1040100021460D480D4DFCF75CFA0D4B2A781B78B4
:104020009A420AD20B480C4B0068012244F62061E8
:1040300000F0A6FA2B7801332B702046BDE83840FB
:10404000FCF706BADC2800205C2900202E21002085
:10405000D2280020CC080020F13F0000F8B5164619
:10406000002302F00802134302D00D4804F058FF69
:1040700006F400220023134305D00020FEF7D0FFF2
:10408000084B00221A7006F00074002554EA05035C
:1040900004D00548BDE8F84004F042BFF8BD00BFB9
:1040A000F0A80000C808002072A9000008B50A2185
:1040B0000848FCF7FDF900B9FEE70A210648FCF7BD
:1040C000F7F900B9FEE70A210448FCF7F1F900B955
:1040D000FEE708BD5C290020BC2900208C290020B7
:1040E0002DE9F84F1546824689463248324F11462F
:1040F00004F08EFE05F10E080120FEF7A9FF4FF037
:10410000000B404687F800B0FCF768F90646FCF75C
:1041100087F90446002838D0412343706FF07703B5
:104120008370264A80F809B01223C3714FF0FF3321
:1041300003721368A0F80AA001331360C0F80330BB
:104140001F4B1B88838105F10D0300F80E3B2A46A7
:10415000494604F0C3FA424621461A4804F0BEFA22
:104160003046FCF78DF931461748FCF7B2F9174B8A
:104170001B787BB11648174B0068012244F620617A
:1041800000F0FEF93B7801333B703046BDE8F84F54
:10419000FCF75EB9104B1B78022BF6D10F4B196858
:1041A0000F4B4FF47A70414309480122006800F038
:1041B000E7F9EAE7C9A900002F21002030210020FB
:1041C000D4280020DC2800205C290020D0280020F2
:1041D000D0080020593F00002E2400208803002032
:1041E000E541000010B50E4B0E481C680323B4FBDC
:1041F000F3F303EB4303E41A96B0214604F008FE00
:104200005122094901A804F069FA1B2201AB02FB03
:1042100004314FF6FF70FFF763FF16B010BD00BF0B
:1042200030210020AFA9000070A800002DE9F84F50
:104230008246284E002093468946FEF709FF002358
:1042400033700BF10C08244B012740461F70FCF71C
:10425000C5F80546FCF7E4F80446002834D04123AD
:1042600043706FF0770383701C4AA0F806A0752393
:1042700003712423437113683B441360C370184BCC
:104280001B8803810BF10B0300F80A3B5A46494691
:1042900004F024FA42462146124804F01FFA284648
:1042A000FCF7EEF829461048FCF713F90F4B1B7882
:1042B00053B10F480F4B00683A4644F6206100F0B6
:1042C0005FF933783B4433702846BDE8F84FFCF77C
:1042D000BFB800BF2E210020C808002030210020D8
:1042E000D4280020DC2800205C290020D2280020CF
:1042F000CC080020F13F000073B51248FCF729F903
:104300000446E0B90F48FCF708F90646FCF788F8C0
:10431000014670B103780C4D01331A46286800F04D
:104320006FFB0A4B286819780094094B224600F06D
:104330003CF9304602B0BDE87040FCF789B802B0E5
:1043400070BD00BF5C290020CC080020D8280020C8
:10435000C8A800000E2004F0B9B9000008B5FFF7A6
:10436000F9FF0C4B0C4A1860412343706FF0770340
:1043700083701223C3714FF0FF3303720023437223
:10438000136801331360C0F80330044B1B8883812A
:1043900008BD00BF3024002030210020D428002098
:1043A0001FB52448244C04F0BBFD2449244800F0E8
:1043B000D7F8206000B9FEE74FF0011100F015FBBF
:1043C000206800F0BBFB30B11E4B1F4A4FF4347124
:1043D0001E4804F0FBF81E49206800F07DFB20B168
:1043E0001C4B194A40F2D121F2E71B4B186802908E
:1043F0009B882068ADF80C3002A900F0A1FA20B12A
:10440000164B114A4FF43A71E2E7FC21206800F0A4
:1044100091FA134A20680023CDE900234FF0FF32C0
:104420004FF0FF3300F076FA0E49206800F0E5FA0D
:1044300004B010BDF4A90000CC0800204D3F0000DE
:104440005C02002018AA0000E4A900005FAA000096
:10445000D4A8000072AA0000C2A80000C0AA0000F0
:104460000A001802C2AA0000034B80B218804FF065
:104470007E639880FFF766BAD428002010B54FF00D
:104480007E63074CC0B22070D871FFF75BFA054B12
:10449000217818680022BDE8104000F089B800BFFC
:1044A000D8280020CC08002010B54FF07E63074CC0
:1044B000C0B220709872FFF745FA054B2178186852
:1044C0000022BDE8104000F073B800BFD7280020DC
:1044D000D0080020034BC0B218704FF07E635872B2
:1044E000FFF730BAD1280020034B18704FF07E63DD
:1044F0001872FFF727BA00BFD2280020034B1870AC
:104500004FF07E63D872FFF71DBA00BFD02800209D
:10451000054B4FF47A71186041430448044B00681E
:10452000012200F02DB800BF88030020CC08002035
:10453000E5410000022070470020704701207047CD
:1045400000207047034B1868034B002808BF18462B
:10455000704700BF38210020C8AA00000020704723
:1045600038B5064B04460D46186000F037F829466A
:104570002046BDE8384000F028B800BF34210020B4
:1045800070B506460D4611461A46FFF7DBFF046874
:1045900033462846A446BDE87040604710B5FFF793
:1045A000D1FFBDE81040836818470C3000F03ABFD7
:1045B0000C3000F0B2B97047431E012B03D9031F22
:1045C0005842584170470120704710B5044601F029
:1045D000FDF800280CBF2046002010BD10B5044691
:1045E00000F0F4FB034A236B002B08BF1346024A7A
:1045F000136010BDB74500008C03002010B50C46B9
:1046000000F0F6FB1CB100F013FC0128FBD110BD3B
:10461000406B70B5C468002318259C4201D101206D
:1046200070BD826805FB0322D6898E4202D8128AA9
:104630008A4201D20133F0E70020F1E773B50D4B58
:104640000E4669461D68044600F0C0FDB6F912200A
:1046500047F6FF739A420BD09DF800102479284644
:10466000FEF71CFFA04234BF0020012002B070BD45
:104670000120FBE7342100202DE9F04F6B4F8BB078
:104680003B680393D0E90A9643880193039B002576
:10469000B3428DF81E50044688468DF81F5003D152
:1046A00013B1019B994252D0B9F1000F00F0BA80CA
:1046B000D9F80820002A00F0B580D9F80C20002A8B
:1046C00000F0B0805A4A0492136802934FF0000A37
:1046D00018224FF0010BD9F80C10514515D9D9F813
:1046E000085002FB0A55E989414535D8298A4145D8
:1046F00032D32946204605928DF81FB0FFF79EFF62
:10470000059A40B38DF81EB02E4608A9204600F049
:104710005DFD204600F060FD9DF81E20A4F10C0B0D
:104720008246E2B12179204600F024FD049B1A68FC
:10473000002A5CD04A4533D1396889B3B1422FD1C0
:10474000019B984518D1E662A4F80280002528460E
:104750000BB0BDE8F08F2E460AF1010ABBE79DF8C9
:104760001F20002A60D09DF82010B6F9122058466C
:10477000FEF794FE0146D6E7002332464146204626
:1047800000F02CFD05460028DDD05146204600F003
:10479000F1FC00233A680199204600F01FFDD6E79E
:1047A000116821B3D9F80000884220D15168204611
:1047B00000F0A6FF0546E8B93168204600F0A0FFEA
:1047C0000546B8B9049BE662C3F80090A4F80280DD
:1047D00001233246414620463E6000F0FFFC05467C
:1047E00040B9144B31461B6858469847AFE7D9F893
:1047F0000010DCE7049B1A46029B1360039B3B609E
:10480000029B1BB11968204600F07AFF51462046F2
:1048100000F0B0FC3B68002B99D01968204600F0EE
:104820006FFFB6E7032592E7012590E740210020BE
:104830003C2100208C030020F8B50F1C18BF012775
:1048400006460D4638461F21002400F001F938467F
:104850001F21B562F46200F0FBF8E86823464FF6CA
:10486000FF711827DAB2824209D30C46094B0022A5
:10487000214630461A60FFF7FFFE2046F8BDAC68BF
:1048800007FB0242D4898C4202D2002CEED0214692
:104890000133E7E73C21002040887047806A704779
:1048A00038B50A78054610460C46FFF785FE88B1F4
:1048B00049780846FFF780FE60B10A43520709D4E1
:1048C00000F0B6FA430707D421462846BDE8384031
:1048D00000F02CBC012038BD0220FCE738B50546AD
:1048E00008780C46FFF768FE80B14A781046FFF75B
:1048F00063FE58B1042A09D000F09AFA830707D45E
:1049000021462846BDE8384000F020BC012038BDD3
:104910000220FCE70C3000F02DBA38B504460D46F5
:10492000FFF7AAFE28B929462046BDE8384000F026
:10493000AFBA38BD0C3000F029BC0C3000F04CBCD4
:1049400038B500F10C040D462046002100F01EFC95
:1049500029462046BDE8384000F006BC0C3000F087
:1049600035BC73B504460E46694600F10C05FFF7E9
:10497000F5FF32469DF800102046FEF78FFD0146F8
:10498000284600F003FC02B070BD37B500F10C05FD
:1049900069460446FFF7E2FF284600F01DFC9DF83B
:1049A000001002462046FEF7E5FD03B030BD38B5E5
:1049B00004460D46FDF7F8FC00232561E360BDE8E1
:1049C0003840FDF7F5BC38B505460C46FDF7ECFC64
:1049D0002969EB680C402343EB60FDF7E9FC0020FC
:1049E0000CB9002138BD0421FCE708B501F0011124
:1049F0000C30FFF7DCFF002008BD0C3000F042BE99
:104A00000C3000F0D9BD0C3000F0F0BD07B502AAA3
:104A10004FF4007322F8023D0749FFF7F4FFBDF899
:104A20000630B3F5007F05D1022808BF002003B08F
:104A30005DF804FB0120FAE744210020024B1960D5
:104A4000024B1860FEE700BF900300209403002093
:104A500008B528B9034B1960034B1868FFF7EEFF40
:104A600008BD00BF9003002034210020084600F05C
:104A70005CBF2DE9F0438BB006460D46182200219D
:104A800004A803F04FFE4FF0FF33CDE90133039349
:104A900005B901AD002405F10608204605F10C0911
:104AA000A0B9E7B23A4635F81410304600F056FF88
:104AB00060B93A4638F81410304600F063FF28B960
:104AC0003A4609EBC401304600F071FF0134032C73
:104AD000E6D10BB0BDE8F0837FB500F10C050E46C2
:104AE0000B7E4A7E897E284600F088FF06F10C0284
:104AF00007CA01AB83E807001946284600F0EAFE22
:104B0000311D284600F0A3FF044670B9284600F086
:104B100087FF044648B90849284600F0A3FE04462A
:104B200018B9284600F052FF044631682846FFF7BE
:104B3000A0FF204604B070BDF0AA00000C3000F0C9
:104B4000F9BE704738B1044B6FF0FF021A6003F1F1
:104B50000073104018607047187008440378990774
:104B60002DE9304804461AD5C26AC2B16FF3410339
:104B7000037053691B685A1C04D01846BDE83048BE
:104B800001F0D8B9D0E914234FF0000B03F0040C66
:104B90005BEA0C0305D1037843F002030370BDE820
:104BA00030884FF48031FFF70EFFD4E9142302EA76
:104BB000000B03EA010C5BEA0C03F0D004495A46EF
:104BC000A4F10C0009686346BDE83048084700BFFF
:104BD00098030020000000002DE9F34781468A4633
:104BE00062A1D1E90001524B17461E6800EA090292
:104BF00001EA0A03134367D009F40020002150EAB8
:104C000001024C4B18BF4C4AD3F8903018BF1360C8
:104C100009F48010002150EA01021CBF474A1360CA
:104C200009F080520023134309D0454B1B6903F060
:104C30007F43B3F1007F02BF424B02221A6009F0AA
:104C4000C0520023134305D03F490868FFF77AFF9D
:104C500000230B6009F001020023134324D04FF01E
:104C600000080022002300210120CDE9008802F085
:104C70005FFD012002F060F8414670820120FFF7DD
:104C8000BDFC336A314913F0800F14BF304A314AFA
:104C90004FF4001313600868FFF754FF00230B6004
:104CA000337B43F00803337300220AF004031343F9
:104CB0000AD0012106F10C00FFF785FE2AF0040559
:104CC00049EA000945EA010AD6E9172309EA020080
:104CD0000AEA03010C46034623438046894614D062
:104CE0001D4B0246196830464B468847124A4FF022
:104CF000FF331360114A08F008040025136054EADA
:104D000005031EBF154B00221A60FB070DD5144981
:104D1000144A0868136800211160134A01211170B8
:104D20001BB102B0BDE8F047184702B0BDE8F087FC
:104D30003421002000500840A00300209C030020E4
:104D4000F0290020004008465C2300205423002066
:104D50001860084618600844980300204423002087
:104D6000682300206423002060230020010018181D
:104D7000040000002DE9F34BDDE90A67D0E914894E
:104D8000044689EA070188EA060001EA030C00EA02
:104D9000020B8CEA09018BEA0800C4E9140122F035
:104DA000010006EA0008002507EA0309194648F051
:104DB000C05249F00403CDE9005502F0B9FC204689
:104DC000FFF7CCFE284602B0BDE8F08B034A03682B
:104DD000002B08BF1346024A13607047434B000084
:104DE00098030020014B0020996070477C0F002140
:104DF00010B5032810D8DFE800F0170210130022C6
:104E000011460124204602F0C7FE2CB1074908686C
:104E1000FFF798FE00230B6010BD00220121F0E790
:104E2000012211461446EDE70022FAE75C23002038
:104E30000F4B5B68C3F30363013B0B2B0DD8DFE81B
:104E400003F014140614140C14080A0808080320AC
:104E500070470420704705207047064BDB6813F04D
:104E6000060F14BF0420012070470220704700BFC6
:104E70000040084000500840044BD3F8883013F03D
:104E8000A00F0CBF01200020704700BF0040084069
:104E900008B5002002F0C4FD002008BD0138C0B2F2
:104EA00002289CBF0F4B53F820200F4B4FF060514E
:104EB000196003F1007388BF00221A604FF40012DA
:104EC0001A600A4A136F23F0060343F004031367C2
:104ED000074B4FF0805119600423C2F88430002042
:104EE000704700BFF8AA000018600844000008409E
:104EF000944008460E4B06221A600E4B0022C3F85F
:104F000084200D4B4FF080521A60436913F0800FDC
:104F100018BF0A490A4B4FF4001214BF0A601A6006
:104F20004FF400121A604FF060521A600020704770
:104F30007000084400000840944008441860084687
:104F400018600844022310B1024A13607047024AF5
:104F5000FBE700BF440008464400084438B5144647
:104F6000426982EA04030B4053400A070D4643613D
:104F700006D514F0080F14BF264A274A08231360E9
:104F8000EB0706D514F0010F14BF224A224A012371
:104F9000136068070CD502F05BFD14F0040F14BF1A
:104FA0001E4A1F4A4FF4007313601E4B04221A60FE
:104FB000A90703D5C4F34000FFF7C4FFEA0606D5EE
:104FC00014F0100F184B14BF00221B22DA642B06BA
:104FD0001AD514F0800F4FF4001317D0134A136042
:104FE000FDF7E2F9124B5B68C3F30363032B06D1B1
:104FF000104A536823F0F00343F0E00353600A4B78
:1050000001225A62FDF7D4F9002038BD0A4A136024
:10501000FAE700BF44000846440008441C60084604
:105020001C60084488400844000008401860084696
:10503000004008407C0F002118600844022001F065
:105040004DBB000013B5012300240022CDE900343C
:1050500000231046194602F06BFB022001F0D2FA41
:10506000014B1C6002B010BD6423002002292DE911
:10507000F74380460E461546994603D1FFF7E2FFF7
:10508000002026E0154CFDF78FF9226807460AB18B
:10509000AA4221D1124A25600123C2F800900022C1
:1050A000CDE9003300231046194602F041FB0D4BB9
:1050B00000221A70B21A18BF01224146022001F0E4
:1050C0002FFB05463846FDF773F9002DD8D1256032
:1050D000012003B0BDE8F0830025F3E7642300203E
:1050E0006823002060230020044BDB6D5B055ABF62
:1050F000034B1878012000F0010070470050084071
:1051000060230020022001F08DBA026B12B11368F7
:10511000022B02D80C38FBF75DB9536A126AD8B279
:105120005043C3F30723B0FBF3F0704710B50648B4
:105130000C7803699AB24B781B0643EA0443134385
:105140000361002010BD00BFF0290020054803695D
:105150001A0C0B78120413434A7843EA02230361C2
:1051600000207047F02900200B4600F1340118465A
:1051700001F014B908B590F86830032B04D0084644
:1051800000F056FF002008BD0220FCE770B590F843
:105190006830032B05460E4614D02971C16A99B1B7
:1051A000FFF74CFA48B9E8622846FFF775FB01465D
:1051B0002846FFF761FA002070BD31462846FFF708
:1051C000D9FFF8E70220F7E70846F5E708B50846F3
:1051D00000F01EFF002008BD00F024BF2DE9F047BD
:1051E0009846C369012B07460E46924648D001F007
:1051F00019FD054601F028FE0446FFF719FE0128B7
:1052000003D001210846FFF7F9F9BAF80C30DAF8B3
:105210000490F61A280BDAF80830C0EB8040B0FB97
:10522000F4F4E409A34284BFB3FBF4F40134B6B24E
:1052300083BFB3FBF4F41A1B06FB02991C463F2EF6
:1052400081BFB2099B0103FB029906F03F0601F002
:10525000EFFD484506D02146484601F0B3FE90B127
:1052600002200EE001F0EAFDA042F4D1B8F1000FF7
:10527000F1D13846FFF772FC0121F0B201F024FFB2
:105280000020BDE8F08701F0EFFD18B1024801F001
:105290003BFFEEE70148FAE7C0CF6A00E067350060
:1052A0004A0108B5202102F0BDFF003018BF0120DF
:1052B00008BD202102F0C8BF08B5084601F018FA61
:1052C000024B4042D860002008BD00BFF0290020FA
:1052D00070B516460C46FDF767F8104B02221A60AF
:1052E0000F4B05465868C0F30360C21F022A01D95C
:1052F0000C2803D1D3F888309B030CD420463146C8
:1053000000F0AEFC0446074B022228461A60FDF767
:105310004FF8204670BD0324F5E700BF88400846DB
:105320000040084088400844CA00082102F07ABFC3
:105330000A024FF4807102F075BF00004FF48073D1
:1053400010B9024A13607047014AFBE788400846DB
:105350008840084470B504461646FFF78DFD0028C6
:105360004AD02046FFF788F90546002842D1244B51
:105370004FF440621A6016F0020204D1214B224918
:105380001B789B020B60214B4FF44061196022B9DE
:105390001C4B1F4A5B789B02136002F059FB16F00E
:1053A000040F14BF1B4A1C4A4FF4806313601B4B4D
:1053B00004221A602046FFF77CFF18B106F00100B6
:1053C000FFF7BCFF204600F0B2FA98B12046FFF785
:1053D00070FF78B14FF40011204602F035FF00282D
:1053E0000CBF03210421002000F00CFC431C05D05D
:1053F0000B4B9860284670BD0225FBE70325F9E7B3
:10540000A000084448230020A0000846A400084447
:10541000A40008461C6008461C60084488400844F4
:10542000F02900202DE9F04F85B080461D46FFF79A
:1054300091FF0646002877D1574F584BBA691A603A
:10544000574C002D00F0948095F90310E88801F086
:10545000A5FCBB692360AB7895F800B06A78002B97
:1054600066D003F1FF395A455FFA89F938BF5A46C9
:105470004FF0010AA88803922F8801F039F9DFF86C
:1054800028C1484B039A84B24FF60401002F68D11B
:10549000DCF8582092B28A4208BF4FF605021A8003
:1054A0000022B4F5807FD3B202F1010244D8082B68
:1054B0003D4946D1FF23B4F5807F8B653ED14FF443
:1054C0008074394B4FF400025A6508229346364BDC
:1054D0001CB1013CFF2C28BFFF24DC620023CDE976
:1054E00000935946534608F1340001F0ADF91FB955
:1054F0002E4B4FF480121A602D4BAA681A602D4B68
:1055000020221A60012001F0CFF9FCF74DFF05467B
:1055100001F0A2F8264B1C6874BB01F0AFF802F052
:1055200063FA2846FCF744FF304605B0BDE8F08F2B
:10553000B346B146B2469DE76408B2E70134A4B26F
:10554000BFE701225BB19A40B4F5807F8A65B6D08F
:1055500080B2013B184100F001000444EFE78A6586
:10556000AFE7188888421CBFCCF858001980AEE716
:105570002068FFF7E7FAC2E7042001F053F810B102
:10558000042001F03FF801222146042001F0C8F870
:105590000028C2D10126C4E7007008405C23002027
:1055A00058230020A4030020005008404C50084617
:1055B0004C23002088400846B3FA83F3084611467E
:1055C000D3F1190210B50FD4062A1346A8BF06233B
:1055D000DAB2931D01249C40A4B2A14228BF214607
:1055E00000F08EFA204610BD0022F2E7084611882E
:1055F000B1FA81F1D1F1190110B50BD40629A8BF78
:105600000621C9B28C1D0123A340138000F094FA37
:10561000002010BD0021F5E7094B0121D3F8EC2053
:10562000996203F18063243352074FF400511960EB
:1056300041BF03F10073C83304221A60704700BFF2
:105640000010084038B50C4BD3F8EC5003F18063E0
:10565000EC334FF480641C60084B0020186002F0AB
:1056600083FA074B4FF400521A606A0542BF03F1F8
:10567000007398331C6038BD00100840442300209C
:105680005410084438B58A78CB789A4205460C46BF
:105690002CD14B78BBB9FFF72DFCA378BBB9144BC9
:1056A00040F6FF725A62E078A8B9114B40F6FF72DB
:1056B0005A6503F1C063A3F6BC7360221A600D4BF8
:1056C00040221A6038BD1846FFF7E8FBE5E7284698
:1056D000FFF7A2FFE7E7084B60221A602846FFF7B2
:1056E000B1FF064B40221A600020EBE70120E9E7FA
:1056F0000010084088400844440008448840084698
:10570000F8B5294E00F1340705463846746801F0B3
:1057100093FA73682B632846FFF7F7FC01F064FEE9
:10572000224B234A1B682989C3F381231370214B21
:105730001B68C3F3812353704FF6FF73994204D063
:105740001D4B1B680BB1284698472E6BA6421CD0F8
:105750000EB3316801B1B168A5F10C00FAF73CFE57
:10576000DEB13468D4B13369DBB1D3E900619C6840
:10577000384601F060FE68B922463146384601F0ED
:1057800056FE38B9384601F04CFE2B7843F0020340
:105790002B700020F8BD3146DEE734462646214610
:1057A000E6E71C46FAE700BFEC0F0021A000084026
:1057B00048230020A4000840502300204822002154
:1057C000014802F0AFBF00BF042A00202DE9FF41CD
:1057D00000254FF06413C0E91433C0E916354FF6C5
:1057E000FF73056280F86C50C563C56405668382EB
:1057F000044600F10C07112088460395FCF7FEFAD9
:1058000004282BD1384602F077F93846FFF7D6FF47
:10581000134B60225A6403A93846FFF733FF226A0C
:1058200006464FF0FF313846FFF798FB4FF0C05265
:105830000423CDE900551046194601F079FF4EB911
:105840002046FFF7E3F80646B8F1000F02D008B98A
:105850002046C047304604B0BDE8F0810226F9E793
:105860000000084010B50C46FFF7A8FF94B1A278DD
:10587000082A11D8E17808290ED8084B60685861C9
:10588000207883F85800607883F8590042EA0112C2
:1058900083F85B20002010BD0120FCE7F0290020E8
:1058A000012A10B512D8032B10D803EB8202084C42
:1058B0000123934094F85A00DBB221B1034384F8EA
:1058C0005A30002010BD20EA0303F8E70120F9E771
:1058D000F029002070B50C46054600F13406098811
:1058E000443001F082FD6188208005F14C0001F018
:1058F0007CFDA188608005F14A0001F076FDE18819
:10590000A08005F1480001F070FD2189E08030465B
:1059100001F077FD61892081304601F07AFD6081D8
:10592000304601F07EFD002070BD01F027B88021D7
:1059300002F08ABC10B508490446FEF77DFF00213D
:105940002046FFF74FFA00224FF4C001204602F034
:1059500069FC002010BD00BF04AB00007FB5531CE4
:105960008DF8141005AA090A8DF81510029202216B
:105970000022CDE90021DBB2114602F06FFC07B036
:105980005DF804FB7FB5531C8DF8141005AA090AB5
:105990008DF81510029204210222CDE90021DBB21C
:1059A0000022012102F05AFC07B05DF804FB1FB58C
:1059B000531C029100220821CDE900210122DBB213
:1059C000114602F04BFC05B05DF804FB13B5FF2255
:1059D0004FF6FF710446FFF7C1FF68B9FF224FF68B
:1059E000FF712046FFF7CEFF30B9CDE90000FF225E
:1059F00069462046FFF7DBFF02B010BD08B55B0427
:105A000003F4F01343EA016343F0B00343EA0242B4
:105A1000024902F007FC002008BD00BFB8011F01C9
:105A200013B54FF40011044602F00EFC50B14AF2D7
:105A30001803ADF80430022201A92046FFF748FC04
:105A400002B010BD05238DF804300122F4E773B5D0
:105A50000E7805460C4656B93146FFF721FC314613
:105A60002846FFF761FC31462846FFF761FC2378A2
:105A700043BB22798DF8042033B323798DF80530A8
:105A800001A92846FEF72AFF0646C0B92378EBB9DC
:105A9000A2798DF80420DBB1A3798DF8053001A936
:105AA0002846FEF7FDFE064648B923783BB16188DB
:105AB0002846FFF701FC01212846FFF7F1FB30469D
:105AC00002B070BD0422D5E76379D7E70222E0E790
:105AD000E379E2E7084B09494FF48032C3F8E82044
